{
  "_format": "hh-sol-artifact-1",
  "contractName": "BeneficiaryDonationManager",
  "sourceName": "contracts/core/project/BeneficiaryDonationManager.sol",
  "abi": [
    {
      "inputs": [
        {
          "internalType": "address",
          "name": "token_",
          "type": "address"
        },
        {
          "internalType": "address",
          "name": "certificate_",
          "type": "address"
        }
      ],
      "stateMutability": "nonpayable",
      "type": "constructor"
    },
    {
      "anonymous": false,
      "inputs": [
        {
          "indexed": true,
          "internalType": "uint256",
          "name": "epoch",
          "type": "uint256"
        },
        {
          "indexed": true,
          "internalType": "address",
          "name": "donor",
          "type": "address"
        },
        {
          "indexed": false,
          "internalType": "uint256",
          "name": "amount",
          "type": "uint256"
        }
      ],
      "name": "DepositForEpochDistributedDonation",
      "type": "event"
    },
    {
      "anonymous": false,
      "inputs": [
        {
          "indexed": true,
          "internalType": "uint256",
          "name": "epoch",
          "type": "uint256"
        },
        {
          "indexed": true,
          "internalType": "address",
          "name": "donor",
          "type": "address"
        },
        {
          "indexed": true,
          "internalType": "uint256",
          "name": "beneficiary",
          "type": "uint256"
        },
        {
          "indexed": false,
          "internalType": "uint256",
          "name": "amount",
          "type": "uint256"
        }
      ],
      "name": "Donation",
      "type": "event"
    },
    {
      "anonymous": false,
      "inputs": [
        {
          "indexed": true,
          "internalType": "address",
          "name": "previousOwner",
          "type": "address"
        },
        {
          "indexed": true,
          "internalType": "address",
          "name": "newOwner",
          "type": "address"
        }
      ],
      "name": "OwnershipTransferred",
      "type": "event"
    },
    {
      "inputs": [],
      "name": "BENEFICIARY_CERTIFICATE",
      "outputs": [
        {
          "internalType": "address",
          "name": "",
          "type": "address"
        }
      ],
      "stateMutability": "view",
      "type": "function"
    },
    {
      "inputs": [],
      "name": "EPOCH_INTERVAL",
      "outputs": [
        {
          "internalType": "uint256",
          "name": "",
          "type": "uint256"
        }
      ],
      "stateMutability": "view",
      "type": "function"
    },
    {
      "inputs": [],
      "name": "MAX_BPS_DENOMINATOR",
      "outputs": [
        {
          "internalType": "uint256",
          "name": "",
          "type": "uint256"
        }
      ],
      "stateMutability": "view",
      "type": "function"
    },
    {
      "inputs": [],
      "name": "START_TIME",
      "outputs": [
        {
          "internalType": "uint256",
          "name": "",
          "type": "uint256"
        }
      ],
      "stateMutability": "view",
      "type": "function"
    },
    {
      "inputs": [],
      "name": "USDC",
      "outputs": [
        {
          "internalType": "address",
          "name": "",
          "type": "address"
        }
      ],
      "stateMutability": "view",
      "type": "function"
    },
    {
      "inputs": [
        {
          "internalType": "address",
          "name": "strategy",
          "type": "address"
        }
      ],
      "name": "addStrategy",
      "outputs": [],
      "stateMutability": "nonpayable",
      "type": "function"
    },
    {
      "inputs": [],
      "name": "claimOwnership",
      "outputs": [],
      "stateMutability": "nonpayable",
      "type": "function"
    },
    {
      "inputs": [
        {
          "internalType": "uint256",
          "name": "epochIndex",
          "type": "uint256"
        }
      ],
      "name": "clrMatching",
      "outputs": [
        {
          "internalType": "address[]",
          "name": "beneficiaries",
          "type": "address[]"
        },
        {
          "internalType": "uint256[]",
          "name": "basisPoints",
          "type": "uint256[]"
        }
      ],
      "stateMutability": "nonpayable",
      "type": "function"
    },
    {
      "inputs": [
        {
          "internalType": "address",
          "name": "donor",
          "type": "address"
        },
        {
          "internalType": "uint256",
          "name": "amount",
          "type": "uint256"
        }
      ],
      "name": "depositForEpochDistribution",
      "outputs": [],
      "stateMutability": "nonpayable",
      "type": "function"
    },
    {
      "inputs": [
        {
          "internalType": "uint256",
          "name": "amount",
          "type": "uint256"
        }
      ],
      "name": "depositForEpochDistribution",
      "outputs": [],
      "stateMutability": "nonpayable",
      "type": "function"
    },
    {
      "inputs": [
        {
          "internalType": "address",
          "name": "donor",
          "type": "address"
        },
        {
          "internalType": "uint256",
          "name": "beneficiaryIndex",
          "type": "uint256"
        },
        {
          "internalType": "uint256",
          "name": "amount",
          "type": "uint256"
        }
      ],
      "name": "donateBeneficiary",
      "outputs": [],
      "stateMutability": "nonpayable",
      "type": "function"
    },
    {
      "inputs": [
        {
          "internalType": "uint256",
          "name": "beneficiaryIndex",
          "type": "uint256"
        },
        {
          "internalType": "uint256",
          "name": "amount",
          "type": "uint256"
        }
      ],
      "name": "donateBeneficiary",
      "outputs": [],
      "stateMutability": "nonpayable",
      "type": "function"
    },
    {
      "inputs": [],
      "name": "getAllBeneficiaries",
      "outputs": [
        {
          "internalType": "address[]",
          "name": "beneficiaries",
          "type": "address[]"
        }
      ],
      "stateMutability": "view",
      "type": "function"
    },
    {
      "inputs": [],
      "name": "getAllStrategies",
      "outputs": [
        {
          "internalType": "address[]",
          "name": "strategies",
          "type": "address[]"
        }
      ],
      "stateMutability": "view",
      "type": "function"
    },
    {
      "inputs": [
        {
          "internalType": "uint256",
          "name": "beneficiaryIndex",
          "type": "uint256"
        }
      ],
      "name": "getBeneficiaryAddress",
      "outputs": [
        {
          "internalType": "address",
          "name": "beneficiary",
          "type": "address"
        }
      ],
      "stateMutability": "view",
      "type": "function"
    },
    {
      "inputs": [],
      "name": "getCurrentEpochIndex",
      "outputs": [
        {
          "internalType": "uint256",
          "name": "index",
          "type": "uint256"
        }
      ],
      "stateMutability": "view",
      "type": "function"
    },
    {
      "inputs": [
        {
          "internalType": "uint256",
          "name": "epochIndex",
          "type": "uint256"
        },
        {
          "internalType": "uint256",
          "name": "beneficiaryIndex",
          "type": "uint256"
        }
      ],
      "name": "getEpochBeneficiaryDonation",
      "outputs": [
        {
          "internalType": "uint256",
          "name": "",
          "type": "uint256"
        }
      ],
      "stateMutability": "view",
      "type": "function"
    },
    {
      "inputs": [
        {
          "internalType": "uint256",
          "name": "epochIndex",
          "type": "uint256"
        }
      ],
      "name": "getEpochDonationDistribution",
      "outputs": [
        {
          "internalType": "address[]",
          "name": "beneficiaries",
          "type": "address[]"
        },
        {
          "internalType": "uint256[]",
          "name": "basisPoints",
          "type": "uint256[]"
        }
      ],
      "stateMutability": "view",
      "type": "function"
    },
    {
      "inputs": [
        {
          "internalType": "uint256",
          "name": "blockNumber",
          "type": "uint256"
        }
      ],
      "name": "getEpochIndex",
      "outputs": [
        {
          "internalType": "uint256",
          "name": "index",
          "type": "uint256"
        }
      ],
      "stateMutability": "view",
      "type": "function"
    },
    {
      "inputs": [],
      "name": "getStrategiesLength",
      "outputs": [
        {
          "internalType": "uint256",
          "name": "length",
          "type": "uint256"
        }
      ],
      "stateMutability": "view",
      "type": "function"
    },
    {
      "inputs": [
        {
          "internalType": "address",
          "name": "strategy",
          "type": "address"
        }
      ],
      "name": "getStrategyIndex",
      "outputs": [
        {
          "internalType": "uint256",
          "name": "strategyIndex",
          "type": "uint256"
        }
      ],
      "stateMutability": "view",
      "type": "function"
    },
    {
      "inputs": [
        {
          "internalType": "uint256",
          "name": "epochIndex",
          "type": "uint256"
        }
      ],
      "name": "getTotalEpochDonation",
      "outputs": [
        {
          "internalType": "uint256",
          "name": "total",
          "type": "uint256"
        }
      ],
      "stateMutability": "view",
      "type": "function"
    },
    {
      "inputs": [],
      "name": "owner",
      "outputs": [
        {
          "internalType": "address",
          "name": "",
          "type": "address"
        }
      ],
      "stateMutability": "view",
      "type": "function"
    },
    {
      "inputs": [],
      "name": "pendingOwner",
      "outputs": [
        {
          "internalType": "address",
          "name": "",
          "type": "address"
        }
      ],
      "stateMutability": "view",
      "type": "function"
    },
    {
      "inputs": [
        {
          "internalType": "address",
          "name": "strategy",
          "type": "address"
        }
      ],
      "name": "removeStrategy",
      "outputs": [],
      "stateMutability": "nonpayable",
      "type": "function"
    },
    {
      "inputs": [
        {
          "internalType": "address",
          "name": "newOwner",
          "type": "address"
        },
        {
          "internalType": "bool",
          "name": "direct",
          "type": "bool"
        },
        {
          "internalType": "bool",
          "name": "renounce",
          "type": "bool"
        }
      ],
      "name": "transferOwnership",
      "outputs": [],
      "stateMutability": "nonpayable",
      "type": "function"
    }
  ],
  "bytecode": "0x60e06040523480156200001157600080fd5b5060405162001b3438038062001b348339810160408190526200003491620000ad565b600180546001600160a01b031916339081179091556040516000907f8be0079c531659141344cd1fd0a4f28419497f9722a3daafe3b4186f6b6457e0908290a34260c0526001600160a01b039182166080521660a052620000e5565b80516001600160a01b0381168114620000a857600080fd5b919050565b60008060408385031215620000c157600080fd5b620000cc8362000090565b9150620000dc6020840162000090565b90509250929050565b60805160a05160c0516119e0620001546000396000818161034701528181610cd20152610d3c01526000818161015d0152818161064001528181610b4d0152610fe001526000818161028b01528181610ad501528181610dc401528181610e4c0152610f6701526119e06000f3fe608060405234801561001057600080fd5b506004361061013e5760003560e01c8063078dfbe71461014357806311dcf273146101585780631592694514610195578063175188e8146101a857806318266bbb146101bb5780631fc695ee146101ce578063223e5479146101ef57806323381bd2146102025780632f14bae8146102185780634e71e0c81461022d57806359398393146102355780635f3167be1461026057806371248ac414610273578063797968881461027c57806389a30271146102865780638da5cb5b146102ad578063949a6b9b146102c05780639666b83b146102d3578063a0d58d8a146102db578063a6fb77ad146102ee578063a7bbb92f14610301578063b43f328614610314578063bcbe067b14610327578063c3b288641461033a578063ddaa26ad14610342578063e30c397814610369575b600080fd5b610156610151366004611565565b61037c565b005b61017f7f000000000000000000000000000000000000000000000000000000000000000081565b60405161018c91906115b0565b60405180910390f35b61017f6101a33660046115c4565b610482565b6101566101b63660046115dd565b610493565b6101566101c93660046115fa565b61058d565b6101e16101dc3660046115c4565b61059b565b60405161018c92919061169a565b6101566101fd3660046115dd565b6105b1565b61020a61062a565b60405190815260200161018c565b61022061063a565b60405161018c91906116c8565b61015661075b565b61020a6102433660046116db565b600091825260036020908152604080842092845291905290205490565b61015661026e3660046115c4565b610807565b61020a61271081565b61020a62dd7c0081565b61017f7f000000000000000000000000000000000000000000000000000000000000000081565b60015461017f906001600160a01b031681565b6101e16102ce3660046115c4565b610814565b60005461020a565b61020a6102e93660046115dd565b6108ea565b6101566102fc3660046116fd565b6108f5565b61015661030f3660046116db565b610945565b61020a6103223660046115c4565b610950565b61020a6103353660046115c4565b61095b565b610220610966565b61020a7f000000000000000000000000000000000000000000000000000000000000000081565b60025461017f906001600160a01b031681565b6001546001600160a01b031633146103af5760405162461bcd60e51b81526004016103a690611732565b60405180910390fd5b8115610461576001600160a01b0383161515806103c95750805b61040d5760405162461bcd60e51b81526020600482015260156024820152744f776e61626c653a207a65726f206164647265737360581b60448201526064016103a6565b6001546040516001600160a01b0380861692169060008051602061198b83398151915290600090a3600180546001600160a01b0385166001600160a01b031991821617909155600280549091169055505050565b600280546001600160a01b0319166001600160a01b0385161790555b505050565b600061048d826109c8565b92915050565b6001546001600160a01b031633146104bd5760405162461bcd60e51b81526004016103a690611732565b60006104c882610a43565b6000549091506104d960018261177d565b82146105555760006104ec60018361177d565b815481106104fc576104fc611790565b600091825260208220015481546001600160a01b0390911691908490811061052657610526611790565b9060005260206000200160006101000a8154816001600160a01b0302191690836001600160a01b031602179055505b6000805480610566576105666117a6565b600082815260209020810160001990810180546001600160a01b0319169055019055505050565b6105978282610a9b565b5050565b6060806105a783610b46565b9094909350915050565b6001546001600160a01b031633146105db5760405162461bcd60e51b81526004016103a690611732565b600080546001810182559080527f290decd9548b62a8d60345a988386fc84ba6bc95484008f6362f93160ef3e5630180546001600160a01b0319166001600160a01b0392909216919091179055565b600061063542610cce565b905090565b606060007f00000000000000000000000000000000000000000000000000000000000000006001600160a01b03166318160ddd6040518163ffffffff1660e01b8152600401602060405180830381865afa15801561069c573d6000803e3d6000fd5b505050506040513d601f19601f820116820180604052508101906106c091906117bc565b9050806001600160401b038111156106da576106da6117d5565b604051908082528060200260200182016040528015610703578160200160208202803683370190505b50915060005b818110156107565761071a816109c8565b83828151811061072c5761072c611790565b6001600160a01b03909216602092830291909101909101528061074e816117eb565b915050610709565b505090565b6002546001600160a01b03163381146107b65760405162461bcd60e51b815260206004820181905260248201527f4f776e61626c653a2063616c6c657220213d2070656e64696e67206f776e657260448201526064016103a6565b6001546040516001600160a01b0380841692169060008051602061198b83398151915290600090a3600180546001600160a01b039092166001600160a01b0319928316179055600280549091169055565b6108113382610a9b565b50565b60608061082083610b46565b909250905060005b6000548110156108d9576000818154811061084557610845611790565b600091825260209091200154604051632f68f80b60e11b81526001600160a01b0390911690635ed1f0169061088290879087908790600401611804565b60408051808303816000875af11580156108a0573d6000803e3d6000fd5b505050506040513d601f19601f820116820180604052508101906108c49190611839565b505080806108d1906117eb565b915050610828565b506108e5838383610d6b565b915091565b600061048d82610a43565b6001600160a01b03831661093a5760405162461bcd60e51b815260206004820152600c60248201526b4e756c6c206164647265737360a01b60448201526064016103a6565b61047d838383610e9e565b610597338383610e9e565b600061048d82610fdb565b600061048d82610cce565b606060008054806020026020016040519081016040528092919081815260200182805480156109be57602002820191906000526020600020905b81546001600160a01b031681526001909101906020018083116109a0575b5050505050905090565b6000818152600460205260409020546001600160a01b031680610a3e5760405162461bcd60e51b815260206004820152602860248201527f42656e656669636961727920496e64657820646f6573206e6f7420657869737460448201526720616e796d6f726560c01b60648201526084016103a6565b919050565b6000805b60005481101561013e5760008181548110610a6457610a64611790565b6000918252602090912001546001600160a01b0390811690841603610a895792915050565b80610a93816117eb565b915050610a47565b60008111610abb5760405162461bcd60e51b81526004016103a690611869565b6000610ac642610cce565b9050610afd6001600160a01b037f000000000000000000000000000000000000000000000000000000000000000016843085611123565b826001600160a01b0316817f2b11cadd8fda2ec550c53fbc1609a30effa5c79138ae3c4f0cd06925f43585a784604051610b3991815260200190565b60405180910390a3505050565b60608060007f00000000000000000000000000000000000000000000000000000000000000006001600160a01b03166318160ddd6040518163ffffffff1660e01b8152600401602060405180830381865afa158015610ba9573d6000803e3d6000fd5b505050506040513d601f19601f82011682018060405250810190610bcd91906117bc565b90506000805b82811015610c20576000868152600360209081526040808320848452909152812054610bfe90611194565b9050610c0a8184611891565b9250508080610c18906117eb565b915050610bd3565b5060005b82811015610cc6576000868152600360209081526040808320848452909152812054610c4f90611194565b9050610c5a826109c8565b868381518110610c6c57610c6c611790565b60200260200101906001600160a01b031690816001600160a01b031681525050610c968184611203565b858381518110610ca857610ca8611790565b60209081029190910101525080610cbe816117eb565b915050610c24565b505050915091565b60007f00000000000000000000000000000000000000000000000000000000000000008211610d335760405162461bcd60e51b81526020600482015260116024820152700496e76616c69642074696d657374616d7607c1b60448201526064016103a6565b62dd7c00610d617f00000000000000000000000000000000000000000000000000000000000000008461177d565b61048d91906118a4565b6000610d7642610cce565b9050808411610dbd5760405162461bcd60e51b8152602060048201526013602482015272115c1bd8da081a185cc81b9bdd08195b991959606a1b60448201526064016103a6565b6000610de87f0000000000000000000000000000000000000000000000000000000000000000611223565b905060005b8451811015610e96576000612710858381518110610e0d57610e0d611790565b602002602001015184610e2091906118c6565b610e2a91906118a4565b9050610e83868381518110610e4157610e41611790565b6020026020010151827f00000000000000000000000000000000000000000000000000000000000000006001600160a01b03166112ad9092919063ffffffff16565b5080610e8e816117eb565b915050610ded565b505050505050565b60008111610ebe5760405162461bcd60e51b81526004016103a690611869565b6000610ec942610cce565b90506000610ed6846109c8565b90506001600160a01b038116610f2b5760405162461bcd60e51b815260206004820152601a60248201527910995b99599a58da585c9e48191bd95cc81b9bdd08195e1a5cdd60321b60448201526064016103a6565b600082815260036020908152604080832087845290915281208054859290610f54908490611891565b90915550610f8f90506001600160a01b037f000000000000000000000000000000000000000000000000000000000000000016868386611123565b83856001600160a01b0316837ffec0975fed0526f052128410068e12394fbe82e127d6a8fff1b59885ff4abb8e86604051610fcc91815260200190565b60405180910390a45050505050565b6000807f000000000000000000000000000000000000000000000000000000000000000090506000816001600160a01b03166318160ddd6040518163ffffffff1660e01b8152600401602060405180830381865afa158015611041573d6000803e3d6000fd5b505050506040513d601f19601f8201168201806040525081019061106591906117bc565b905060005b8181101561111b576040516331a9108f60e11b8152600481018290526000906001600160a01b03851690636352211e90602401602060405180830381865afa1580156110ba573d6000803e3d6000fd5b505050506040513d601f19601f820116820180604052508101906110de91906118dd565b6001600160a01b0316146111135760008581526003602090815260408083208484529091529020546111109085611891565b93505b60010161106a565b505050919050565b6040516001600160a01b038085166024830152831660448201526064810182905261118e9085906323b872dd60e01b906084015b60408051601f198184030181529190526020810180516001600160e01b03166001600160e01b0319909316929092179091526112dd565b50505050565b600060038211156111f557508060006111ae6002836118a4565b6111b9906001611891565b90505b818110156111ef579050806002816111d481866118a4565b6111de9190611891565b6111e891906118a4565b90506111bc565b50919050565b8115610a3e57506001919050565b600081611212612710856118c6565b61121c91906118a4565b9392505050565b60006001600160a01b038216156112a6576040516370a0823160e01b81526001600160a01b038316906370a08231906112609030906004016115b0565b602060405180830381865afa15801561127d573d6000803e3d6000fd5b505050506040513d601f19601f820116820180604052508101906112a191906117bc565b61048d565b4792915050565b6040516001600160a01b03831660248201526044810182905261047d90849063a9059cbb60e01b90606401611157565b6000611332826040518060400160405280602081526020017f5361666545524332303a206c6f772d6c6576656c2063616c6c206661696c6564815250856001600160a01b03166113b29092919063ffffffff16565b905080516000148061135357508080602001905181019061135391906118fa565b61047d5760405162461bcd60e51b815260206004820152602a60248201527f5361666545524332303a204552433230206f7065726174696f6e20646964206e6044820152691bdd081cdd58d8d9595960b21b60648201526084016103a6565b60606113c184846000856113c9565b949350505050565b60608247101561142a5760405162461bcd60e51b815260206004820152602660248201527f416464726573733a20696e73756666696369656e742062616c616e636520666f6044820152651c8818d85b1b60d21b60648201526084016103a6565b600080866001600160a01b03168587604051611446919061193b565b60006040518083038185875af1925050503d8060008114611483576040519150601f19603f3d011682016040523d82523d6000602084013e611488565b606091505b5091509150611499878383876114a4565b979650505050505050565b6060831561151357825160000361150c576001600160a01b0385163b61150c5760405162461bcd60e51b815260206004820152601d60248201527f416464726573733a2063616c6c20746f206e6f6e2d636f6e747261637400000060448201526064016103a6565b50816113c1565b6113c183838151156115285781518083602001fd5b8060405162461bcd60e51b81526004016103a69190611957565b6001600160a01b038116811461081157600080fd5b801515811461081157600080fd5b60008060006060848603121561157a57600080fd5b833561158581611542565b9250602084013561159581611557565b915060408401356115a581611557565b809150509250925092565b6001600160a01b0391909116815260200190565b6000602082840312156115d657600080fd5b5035919050565b6000602082840312156115ef57600080fd5b813561121c81611542565b6000806040838503121561160d57600080fd5b823561161881611542565b946020939093013593505050565b600081518084526020808501945080840160005b8381101561165f5781516001600160a01b03168752958201959082019060010161163a565b509495945050505050565b600081518084526020808501945080840160005b8381101561165f5781518752958201959082019060010161167e565b6040815260006116ad6040830185611626565b82810360208401526116bf818561166a565b95945050505050565b60208152600061121c6020830184611626565b600080604083850312156116ee57600080fd5b50508035926020909101359150565b60008060006060848603121561171257600080fd5b833561171d81611542565b95602085013595506040909401359392505050565b6020808252818101527f4f776e61626c653a2063616c6c6572206973206e6f7420746865206f776e6572604082015260600190565b634e487b7160e01b600052601160045260246000fd5b8181038181111561048d5761048d611767565b634e487b7160e01b600052603260045260246000fd5b634e487b7160e01b600052603160045260246000fd5b6000602082840312156117ce57600080fd5b5051919050565b634e487b7160e01b600052604160045260246000fd5b6000600182016117fd576117fd611767565b5060010190565b83815260606020820152600061181d6060830185611626565b828103604084015261182f818561166a565b9695505050505050565b6000806040838503121561184c57600080fd5b82519150602083015161185e81611542565b809150509250929050565b6020808252600e908201526d125b9d985b1a5908185b5bdd5b9d60921b604082015260600190565b8082018082111561048d5761048d611767565b6000826118c157634e487b7160e01b600052601260045260246000fd5b500490565b808202811582820484141761048d5761048d611767565b6000602082840312156118ef57600080fd5b815161121c81611542565b60006020828403121561190c57600080fd5b815161121c81611557565b60005b8381101561193257818101518382015260200161191a565b50506000910152565b6000825161194d818460208701611917565b9190910192915050565b6020815260008251806020840152611976816040850160208701611917565b601f01601f1916919091016040019291505056fe8be0079c531659141344cd1fd0a4f28419497f9722a3daafe3b4186f6b6457e0a26469706673582212205a773656e546e627cd878a19d20e9d806a8b0f8cf2b3a9ea9b8d994e27b3bab264736f6c63430008110033",
  "linkReferences": {},
  "deployedLinkReferences": {}
}