{
  "_format": "hh-sol-artifact-1",
  "contractName": "ERC4626Strategy",
  "sourceName": "contracts/core/project/strategies/ERC4626Strategy.sol",
  "abi": [
    {
      "inputs": [
        {
          "internalType": "string",
          "name": "name_",
          "type": "string"
        },
        {
          "internalType": "string",
          "name": "symbol_",
          "type": "string"
        },
        {
          "internalType": "address",
          "name": "erc4626_",
          "type": "address"
        },
        {
          "internalType": "address",
          "name": "manager_",
          "type": "address"
        }
      ],
      "stateMutability": "nonpayable",
      "type": "constructor"
    },
    {
      "anonymous": false,
      "inputs": [
        {
          "indexed": true,
          "internalType": "address",
          "name": "owner",
          "type": "address"
        },
        {
          "indexed": true,
          "internalType": "address",
          "name": "spender",
          "type": "address"
        },
        {
          "indexed": false,
          "internalType": "uint256",
          "name": "value",
          "type": "uint256"
        }
      ],
      "name": "Approval",
      "type": "event"
    },
    {
      "anonymous": false,
      "inputs": [
        {
          "indexed": true,
          "internalType": "uint256",
          "name": "epochIndex",
          "type": "uint256"
        },
        {
          "indexed": true,
          "internalType": "address",
          "name": "user",
          "type": "address"
        },
        {
          "indexed": true,
          "internalType": "address",
          "name": "asset",
          "type": "address"
        },
        {
          "indexed": false,
          "internalType": "uint256",
          "name": "underlyingAmountIn",
          "type": "uint256"
        }
      ],
      "name": "Deposit",
      "type": "event"
    },
    {
      "anonymous": false,
      "inputs": [
        {
          "indexed": true,
          "internalType": "uint256",
          "name": "epochIndex",
          "type": "uint256"
        },
        {
          "indexed": true,
          "internalType": "address",
          "name": "underlyingAsset",
          "type": "address"
        },
        {
          "indexed": true,
          "internalType": "address",
          "name": "beneficiary",
          "type": "address"
        },
        {
          "indexed": false,
          "internalType": "uint256",
          "name": "amount",
          "type": "uint256"
        }
      ],
      "name": "DistributeYield",
      "type": "event"
    },
    {
      "anonymous": false,
      "inputs": [
        {
          "indexed": true,
          "internalType": "uint256",
          "name": "epoch",
          "type": "uint256"
        },
        {
          "indexed": true,
          "internalType": "address",
          "name": "asset",
          "type": "address"
        },
        {
          "indexed": false,
          "internalType": "uint256",
          "name": "yieldAmount",
          "type": "uint256"
        }
      ],
      "name": "EpochYieldClaim",
      "type": "event"
    },
    {
      "anonymous": false,
      "inputs": [
        {
          "indexed": true,
          "internalType": "address",
          "name": "previousOwner",
          "type": "address"
        },
        {
          "indexed": true,
          "internalType": "address",
          "name": "newOwner",
          "type": "address"
        }
      ],
      "name": "OwnershipTransferred",
      "type": "event"
    },
    {
      "anonymous": false,
      "inputs": [
        {
          "indexed": true,
          "internalType": "address",
          "name": "from",
          "type": "address"
        },
        {
          "indexed": true,
          "internalType": "address",
          "name": "to",
          "type": "address"
        },
        {
          "indexed": false,
          "internalType": "uint256",
          "name": "value",
          "type": "uint256"
        }
      ],
      "name": "Transfer",
      "type": "event"
    },
    {
      "anonymous": false,
      "inputs": [
        {
          "indexed": true,
          "internalType": "uint256",
          "name": "epochIndex",
          "type": "uint256"
        },
        {
          "indexed": true,
          "internalType": "address",
          "name": "user",
          "type": "address"
        },
        {
          "indexed": true,
          "internalType": "address",
          "name": "asset",
          "type": "address"
        },
        {
          "indexed": false,
          "internalType": "uint256",
          "name": "underlyingAmountOut",
          "type": "uint256"
        }
      ],
      "name": "Withdraw",
      "type": "event"
    },
    {
      "inputs": [],
      "name": "BENEFICIARY_DONATION_MANAGER",
      "outputs": [
        {
          "internalType": "address",
          "name": "",
          "type": "address"
        }
      ],
      "stateMutability": "view",
      "type": "function"
    },
    {
      "inputs": [],
      "name": "MAX_BPS_DENOMINATOR",
      "outputs": [
        {
          "internalType": "uint256",
          "name": "",
          "type": "uint256"
        }
      ],
      "stateMutability": "view",
      "type": "function"
    },
    {
      "inputs": [],
      "name": "UNDERLYING_TOKEN",
      "outputs": [
        {
          "internalType": "address",
          "name": "",
          "type": "address"
        }
      ],
      "stateMutability": "view",
      "type": "function"
    },
    {
      "inputs": [],
      "name": "YIELD_TOKEN",
      "outputs": [
        {
          "internalType": "address",
          "name": "",
          "type": "address"
        }
      ],
      "stateMutability": "view",
      "type": "function"
    },
    {
      "inputs": [
        {
          "internalType": "address",
          "name": "owner",
          "type": "address"
        },
        {
          "internalType": "address",
          "name": "spender",
          "type": "address"
        }
      ],
      "name": "allowance",
      "outputs": [
        {
          "internalType": "uint256",
          "name": "",
          "type": "uint256"
        }
      ],
      "stateMutability": "view",
      "type": "function"
    },
    {
      "inputs": [
        {
          "internalType": "address",
          "name": "spender",
          "type": "address"
        },
        {
          "internalType": "uint256",
          "name": "amount",
          "type": "uint256"
        }
      ],
      "name": "approve",
      "outputs": [
        {
          "internalType": "bool",
          "name": "",
          "type": "bool"
        }
      ],
      "stateMutability": "nonpayable",
      "type": "function"
    },
    {
      "inputs": [],
      "name": "assetDetails",
      "outputs": [
        {
          "internalType": "address",
          "name": "asset",
          "type": "address"
        },
        {
          "internalType": "uint8",
          "name": "decimals",
          "type": "uint8"
        }
      ],
      "stateMutability": "view",
      "type": "function"
    },
    {
      "inputs": [
        {
          "internalType": "address",
          "name": "account",
          "type": "address"
        }
      ],
      "name": "balanceOf",
      "outputs": [
        {
          "internalType": "uint256",
          "name": "",
          "type": "uint256"
        }
      ],
      "stateMutability": "view",
      "type": "function"
    },
    {
      "inputs": [],
      "name": "claimOwnership",
      "outputs": [],
      "stateMutability": "nonpayable",
      "type": "function"
    },
    {
      "inputs": [
        {
          "internalType": "uint256",
          "name": "epochIndex",
          "type": "uint256"
        },
        {
          "internalType": "address[]",
          "name": "beneficiaries",
          "type": "address[]"
        },
        {
          "internalType": "uint256[]",
          "name": "basisPoints",
          "type": "uint256[]"
        }
      ],
      "name": "claimYieldAndDistributeByEpoch",
      "outputs": [
        {
          "internalType": "uint256",
          "name": "yield",
          "type": "uint256"
        },
        {
          "internalType": "address",
          "name": "token",
          "type": "address"
        }
      ],
      "stateMutability": "nonpayable",
      "type": "function"
    },
    {
      "inputs": [],
      "name": "decimals",
      "outputs": [
        {
          "internalType": "uint8",
          "name": "",
          "type": "uint8"
        }
      ],
      "stateMutability": "view",
      "type": "function"
    },
    {
      "inputs": [
        {
          "internalType": "address",
          "name": "spender",
          "type": "address"
        },
        {
          "internalType": "uint256",
          "name": "subtractedValue",
          "type": "uint256"
        }
      ],
      "name": "decreaseAllowance",
      "outputs": [
        {
          "internalType": "bool",
          "name": "",
          "type": "bool"
        }
      ],
      "stateMutability": "nonpayable",
      "type": "function"
    },
    {
      "inputs": [
        {
          "internalType": "address",
          "name": "token",
          "type": "address"
        },
        {
          "internalType": "uint256",
          "name": "underlyingAmount",
          "type": "uint256"
        }
      ],
      "name": "deposit",
      "outputs": [
        {
          "internalType": "uint256",
          "name": "shares",
          "type": "uint256"
        }
      ],
      "stateMutability": "nonpayable",
      "type": "function"
    },
    {
      "inputs": [],
      "name": "exchangeRate",
      "outputs": [
        {
          "internalType": "uint256",
          "name": "rate",
          "type": "uint256"
        }
      ],
      "stateMutability": "view",
      "type": "function"
    },
    {
      "inputs": [
        {
          "internalType": "address",
          "name": "spender",
          "type": "address"
        },
        {
          "internalType": "uint256",
          "name": "addedValue",
          "type": "uint256"
        }
      ],
      "name": "increaseAllowance",
      "outputs": [
        {
          "internalType": "bool",
          "name": "",
          "type": "bool"
        }
      ],
      "stateMutability": "nonpayable",
      "type": "function"
    },
    {
      "inputs": [],
      "name": "name",
      "outputs": [
        {
          "internalType": "string",
          "name": "",
          "type": "string"
        }
      ],
      "stateMutability": "view",
      "type": "function"
    },
    {
      "inputs": [],
      "name": "owner",
      "outputs": [
        {
          "internalType": "address",
          "name": "",
          "type": "address"
        }
      ],
      "stateMutability": "view",
      "type": "function"
    },
    {
      "inputs": [],
      "name": "pendingOwner",
      "outputs": [
        {
          "internalType": "address",
          "name": "",
          "type": "address"
        }
      ],
      "stateMutability": "view",
      "type": "function"
    },
    {
      "inputs": [],
      "name": "symbol",
      "outputs": [
        {
          "internalType": "string",
          "name": "",
          "type": "string"
        }
      ],
      "stateMutability": "view",
      "type": "function"
    },
    {
      "inputs": [],
      "name": "totalSupply",
      "outputs": [
        {
          "internalType": "uint256",
          "name": "",
          "type": "uint256"
        }
      ],
      "stateMutability": "view",
      "type": "function"
    },
    {
      "inputs": [
        {
          "internalType": "address",
          "name": "to",
          "type": "address"
        },
        {
          "internalType": "uint256",
          "name": "amount",
          "type": "uint256"
        }
      ],
      "name": "transfer",
      "outputs": [
        {
          "internalType": "bool",
          "name": "",
          "type": "bool"
        }
      ],
      "stateMutability": "nonpayable",
      "type": "function"
    },
    {
      "inputs": [
        {
          "internalType": "address",
          "name": "from",
          "type": "address"
        },
        {
          "internalType": "address",
          "name": "to",
          "type": "address"
        },
        {
          "internalType": "uint256",
          "name": "amount",
          "type": "uint256"
        }
      ],
      "name": "transferFrom",
      "outputs": [
        {
          "internalType": "bool",
          "name": "",
          "type": "bool"
        }
      ],
      "stateMutability": "nonpayable",
      "type": "function"
    },
    {
      "inputs": [
        {
          "internalType": "address",
          "name": "newOwner",
          "type": "address"
        },
        {
          "internalType": "bool",
          "name": "direct",
          "type": "bool"
        },
        {
          "internalType": "bool",
          "name": "renounce",
          "type": "bool"
        }
      ],
      "name": "transferOwnership",
      "outputs": [],
      "stateMutability": "nonpayable",
      "type": "function"
    },
    {
      "inputs": [
        {
          "internalType": "address",
          "name": "token",
          "type": "address"
        },
        {
          "internalType": "uint256",
          "name": "underlyingAmount",
          "type": "uint256"
        }
      ],
      "name": "withdraw",
      "outputs": [
        {
          "internalType": "uint256",
          "name": "underlyingAmountOut",
          "type": "uint256"
        }
      ],
      "stateMutability": "nonpayable",
      "type": "function"
    }
  ],
  "bytecode": "0x60e06040523480156200001157600080fd5b5060405162002a9038038062002a9083398101604081905262000034916200063c565b8383600362000044838262000759565b50600462000053828262000759565b5050600580546001600160a01b031916339081179091556040519091506000907f8be0079c531659141344cd1fd0a4f28419497f9722a3daafe3b4186f6b6457e0908290a3806001600160a01b03166080816001600160a01b031681525050816001600160a01b03166338d52e0f6040518163ffffffff1660e01b8152600401602060405180830381865afa158015620000f1573d6000803e3d6000fd5b505050506040513d601f19601f8201168201806040525081019062000117919062000825565b6001600160a01b0390811660a081905290831660c05262000147908360006200017a602090811b62000ff317901c565b620001703060001960a0516001600160a01b03166200017a60201b62000ff3179092919060201c565b50505050620008db565b801580620001f85750604051636eb1769f60e11b81523060048201526001600160a01b03838116602483015284169063dd62ed3e90604401602060405180830381865afa158015620001d0573d6000803e3d6000fd5b505050506040513d601f19601f82011682018060405250810190620001f691906200084a565b155b620002705760405162461bcd60e51b815260206004820152603660248201527f5361666545524332303a20617070726f76652066726f6d206e6f6e2d7a65726f60448201527f20746f206e6f6e2d7a65726f20616c6c6f77616e63650000000000000000000060648201526084015b60405180910390fd5b604080516001600160a01b038416602482015260448082018490528251808303909101815260649091019091526020810180516001600160e01b0390811663095ea7b360e01b17909152620002c8918591620002cd16565b505050565b600062000329826040518060400160405280602081526020017f5361666545524332303a206c6f772d6c6576656c2063616c6c206661696c6564815250856001600160a01b0316620003ae60201b6200112e179092919060201c565b90508051600014806200034d5750808060200190518101906200034d919062000864565b620002c85760405162461bcd60e51b815260206004820152602a60248201527f5361666545524332303a204552433230206f7065726174696f6e20646964206e6044820152691bdd081cdd58d8d9595960b21b606482015260840162000267565b6060620003bf8484600085620003c7565b949350505050565b6060824710156200042a5760405162461bcd60e51b815260206004820152602660248201527f416464726573733a20696e73756666696369656e742062616c616e636520666f6044820152651c8818d85b1b60d21b606482015260840162000267565b600080866001600160a01b0316858760405162000448919062000888565b60006040518083038185875af1925050503d806000811462000487576040519150601f19603f3d011682016040523d82523d6000602084013e6200048c565b606091505b509092509050620004a087838387620004ab565b979650505050505050565b606083156200051f57825160000362000517576001600160a01b0385163b620005175760405162461bcd60e51b815260206004820152601d60248201527f416464726573733a2063616c6c20746f206e6f6e2d636f6e7472616374000000604482015260640162000267565b5081620003bf565b620003bf8383815115620005365781518083602001fd5b8060405162461bcd60e51b8152600401620002679190620008a6565b634e487b7160e01b600052604160045260246000fd5b60005b83811015620005855781810151838201526020016200056b565b50506000910152565b600082601f830112620005a057600080fd5b81516001600160401b0380821115620005bd57620005bd62000552565b604051601f8301601f19908116603f01168101908282118183101715620005e857620005e862000552565b816040528381528660208588010111156200060257600080fd5b6200061584602083016020890162000568565b9695505050505050565b80516001600160a01b03811681146200063757600080fd5b919050565b600080600080608085870312156200065357600080fd5b84516001600160401b03808211156200066b57600080fd5b62000679888389016200058e565b955060208701519150808211156200069057600080fd5b506200069f878288016200058e565b935050620006b0604086016200061f565b9150620006c0606086016200061f565b905092959194509250565b600181811c90821680620006e057607f821691505b6020821081036200070157634e487b7160e01b600052602260045260246000fd5b50919050565b601f821115620002c857600081815260208120601f850160051c81016020861015620007305750805b601f850160051c820191505b8181101562000751578281556001016200073c565b505050505050565b81516001600160401b0381111562000775576200077562000552565b6200078d81620007868454620006cb565b8462000707565b602080601f831160018114620007c55760008415620007ac5750858301515b600019600386901b1c1916600185901b17855562000751565b600085815260208120601f198616915b82811015620007f657888601518255948401946001909101908401620007d5565b5085821015620008155787850151600019600388901b60f8161c191681555b5050505050600190811b01905550565b6000602082840312156200083857600080fd5b62000843826200061f565b9392505050565b6000602082840312156200085d57600080fd5b5051919050565b6000602082840312156200087757600080fd5b815180151581146200084357600080fd5b600082516200089c81846020870162000568565b9190910192915050565b6020815260008251806020840152620008c781604085016020870162000568565b601f01601f19169190910160400192915050565b60805160a05160c051612107620009896000396000818161022601528181610578015281816105fe0152818161072201528181610e6101526116080152600081816101ad01528181610695015281816107b701528181610a9901528181610af501528181610b6d01528181610bb801528181610bdb01528181610d2801528181610f7d01526117af01526000818161026e015281816108de015281816109b0015261156a01526121076000f3fe608060405234801561001057600080fd5b50600436106101285760003560e01c806306fdde031461012d578063078dfbe71461014b578063095ea7b31461016057806318160ddd1461018357806323b872dd1461019557806329db1be6146101a8578063313ce567146101dc57806339509351146101eb5780633ba0b9a9146101fe57806347e7ef24146102065780634e71e0c814610219578063544bc96d146102215780635ed1f016146102485780636b5561161461026957806370a082311461029057806371248ac4146102a35780638c405071146102ac5780638da5cb5b146102d557806395d89b41146102e8578063a457c2d7146102f0578063a9059cbb14610303578063dd62ed3e14610316578063e30c397814610329578063f3fef3a31461033c575b600080fd5b61013561034f565b6040516101429190611bc3565b60405180910390f35b61015e610159366004611c23565b6103e1565b005b61017361016e366004611c6c565b610513565b6040519015158152602001610142565b6002545b604051908152602001610142565b6101736101a3366004611c96565b61052d565b6101cf7f000000000000000000000000000000000000000000000000000000000000000081565b6040516101429190611cd2565b60405160128152602001610142565b6101736101f9366004611c6c565b610551565b610187610573565b610187610214366004611c6c565b610691565b61015e61082a565b6101cf7f000000000000000000000000000000000000000000000000000000000000000081565b61025b610256366004611dba565b6108d6565b604051610142929190611e84565b6101cf7f000000000000000000000000000000000000000000000000000000000000000081565b61018761029e366004611e9b565b610b98565b61018761271081565b6102b4610bb3565b604080516001600160a01b03909316835260ff909116602083015201610142565b6005546101cf906001600160a01b031681565b610135610c61565b6101736102fe366004611c6c565b610c70565b610173610311366004611c6c565b610ceb565b610187610324366004611ebd565b610cf9565b6006546101cf906001600160a01b031681565b61018761034a366004611c6c565b610d24565b60606003805461035e90611ef0565b80601f016020809104026020016040519081016040528092919081815260200182805461038a90611ef0565b80156103d75780601f106103ac576101008083540402835291602001916103d7565b820191906000526020600020905b8154815290600101906020018083116103ba57829003601f168201915b5050505050905090565b6005546001600160a01b031633146104405760405162461bcd60e51b815260206004820181905260248201527f4f776e61626c653a2063616c6c6572206973206e6f7420746865206f776e657260448201526064015b60405180910390fd5b81156104f2576001600160a01b03831615158061045a5750805b61049e5760405162461bcd60e51b81526020600482015260156024820152744f776e61626c653a207a65726f206164647265737360581b6044820152606401610437565b6005546040516001600160a01b0380861692169060008051602061209283398151915290600090a3600580546001600160a01b0385166001600160a01b031991821617909155600680549091169055505050565b600680546001600160a01b0319166001600160a01b0385161790555b505050565b600033610521818585611145565b60019150505b92915050565b60003361053b858285611269565b6105468585856112e3565b506001949350505050565b6000336105218185856105648383610cf9565b61056e9190611f40565b611145565b6000807f00000000000000000000000000000000000000000000000000000000000000006001600160a01b03166301e1d1146040518163ffffffff1660e01b8152600401602060405180830381865afa1580156105d4573d6000803e3d6000fd5b505050506040513d601f19601f820116820180604052508101906105f89190611f53565b905060007f00000000000000000000000000000000000000000000000000000000000000006001600160a01b03166318160ddd6040518163ffffffff1660e01b8152600401602060405180830381865afa15801561065a573d6000803e3d6000fd5b505050506040513d601f19601f8201168201806040525081019061067e9190611f53565b905061068a8282611475565b9250505090565b60007f00000000000000000000000000000000000000000000000000000000000000006001600160a01b0316836001600160a01b03161461070b5760405162461bcd60e51b81526020600482015260146024820152732737ba103ab73232b9363cb4b733903a37b5b2b760611b6044820152606401610437565b604051636e553f6560e01b81526001600160a01b037f00000000000000000000000000000000000000000000000000000000000000001690636e553f65906107599085903090600401611e84565b6020604051808303816000875af1158015610778573d6000803e3d6000fd5b505050506040513d601f19601f8201168201806040525081019061079c9190611f53565b90506107a833836114a4565b60006107b342611551565b90507f00000000000000000000000000000000000000000000000000000000000000006001600160a01b0316336001600160a01b0316827f2c0f148b435140de488c1b34647f1511c646f7077e87007bacf22ef9977a16d88660405161081b91815260200190565b60405180910390a45092915050565b6006546001600160a01b03163381146108855760405162461bcd60e51b815260206004820181905260248201527f4f776e61626c653a2063616c6c657220213d2070656e64696e67206f776e65726044820152606401610437565b6005546040516001600160a01b0380841692169060008051602061209283398151915290600090a3600580546001600160a01b039092166001600160a01b0319928316179055600680549091169055565b6000808460007f00000000000000000000000000000000000000000000000000000000000000006001600160a01b03166323381bd26040518163ffffffff1660e01b8152600401602060405180830381865afa15801561093a573d6000803e3d6000fd5b505050506040513d601f19601f8201168201806040525081019061095e9190611f53565b90508082116109a55760405162461bcd60e51b8152602060048201526013602482015272115c1bd8da081a185cc81b9bdd08195b991959606a1b6044820152606401610437565b336001600160a01b037f00000000000000000000000000000000000000000000000000000000000000001614610a2c5760405162461bcd60e51b815260206004820152602660248201527f4f6e6c792063616e2062652063616c6c656420627920646f6e6174696f6e206d60448201526530b730b3b2b960d11b6064820152608401610437565b610a35876115dd565b935060005b8651811015610b6a576000612710878381518110610a5a57610a5a611f6c565b602002602001015187610a6d9190611f82565b610a779190611faf565b9050610ad0888381518110610a8e57610a8e611f6c565b6020026020010151827f00000000000000000000000000000000000000000000000000000000000000006001600160a01b03166118129092919063ffffffff16565b878281518110610ae257610ae2611f6c565b60200260200101516001600160a01b03167f00000000000000000000000000000000000000000000000000000000000000006001600160a01b03168a7f811c45902c7a4eb7336f5a64a7adf5c8eb39a75380c34d3e55c82117ddb2773c84604051610b4f91815260200190565b60405180910390a45080610b6281611fd1565b915050610a3a565b507f000000000000000000000000000000000000000000000000000000000000000092505050935093915050565b6001600160a01b031660009081526020819052604090205490565b6000807f000000000000000000000000000000000000000000000000000000000000000091507f00000000000000000000000000000000000000000000000000000000000000006001600160a01b031663313ce5676040518163ffffffff1660e01b8152600401602060405180830381865afa158015610c37573d6000803e3d6000fd5b505050506040513d601f19601f82011682018060405250810190610c5b9190611fea565b90509091565b60606004805461035e90611ef0565b60003381610c7e8286610cf9565b905083811015610cde5760405162461bcd60e51b815260206004820152602560248201527f45524332303a2064656372656173656420616c6c6f77616e63652062656c6f77604482015264207a65726f60d81b6064820152608401610437565b6105468286868403611145565b6000336105218185856112e3565b6001600160a01b03918216600090815260016020908152604080832093909416825291909152205490565b60007f00000000000000000000000000000000000000000000000000000000000000006001600160a01b0316836001600160a01b031614610d975760405162461bcd60e51b815260206004820152600d60248201526c24b73b30b634b2103a37b5b2b760991b6044820152606401610437565b3360009081526007602052604090205482811015610df75760405162461bcd60e51b815260206004820152601f60248201527f5769746864726177616c20616d6f756e742065786365656473207374616b65006044820152606401610437565b82610e0133610b98565b1015610e5f5760405162461bcd60e51b815260206004820152602760248201527f416d6f756e74207265717565737465642065786365656473206465706f73697460448201526608185b5bdd5b9d60ca1b6064820152608401610437565b7f0000000000000000000000000000000000000000000000000000000000000000610e8a3385611831565b6040516363737ac960e11b8152600481018590526000906001600160a01b0383169063c6e6f59290602401602060405180830381865afa158015610ed2573d6000803e3d6000fd5b505050506040513d601f19601f82011682018060405250810190610ef69190611f53565b604051635d043b2960e11b81529091506001600160a01b0383169063ba08765290610f299084903390309060040161200d565b6020604051808303816000875af1158015610f48573d6000803e3d6000fd5b505050506040513d601f19601f82011682018060405250810190610f6c9190611f53565b93506000610f7942611551565b90507f00000000000000000000000000000000000000000000000000000000000000006001600160a01b0316336001600160a01b0316827ffeb2000dca3e617cd6f3a8bbb63014bb54a124aac6ccbf73ee7229b4cd01f12089604051610fe191815260200190565b60405180910390a45050505092915050565b80158061106d5750604051636eb1769f60e11b81523060048201526001600160a01b03838116602483015284169063dd62ed3e90604401602060405180830381865afa158015611047573d6000803e3d6000fd5b505050506040513d601f19601f8201168201806040525081019061106b9190611f53565b155b6110d85760405162461bcd60e51b815260206004820152603660248201527f5361666545524332303a20617070726f76652066726f6d206e6f6e2d7a65726f60448201527520746f206e6f6e2d7a65726f20616c6c6f77616e636560501b6064820152608401610437565b61050e8363095ea7b360e01b84846040516024016110f792919061202c565b60408051601f198184030181529190526020810180516001600160e01b03166001600160e01b031990931692909217909152611951565b606061113d8484600085611a26565b949350505050565b6001600160a01b0383166111a75760405162461bcd60e51b8152602060048201526024808201527f45524332303a20617070726f76652066726f6d20746865207a65726f206164646044820152637265737360e01b6064820152608401610437565b6001600160a01b0382166112085760405162461bcd60e51b815260206004820152602260248201527f45524332303a20617070726f766520746f20746865207a65726f206164647265604482015261737360f01b6064820152608401610437565b6001600160a01b0383811660008181526001602090815260408083209487168084529482529182902085905590518481527f8c5be1e5ebec7d5bd14f71427d1e84f3dd0314c0f7b2291e5b200ac8c7c3b925910160405180910390a3505050565b60006112758484610cf9565b905060001981146112dd57818110156112d05760405162461bcd60e51b815260206004820152601d60248201527f45524332303a20696e73756666696369656e7420616c6c6f77616e63650000006044820152606401610437565b6112dd8484848403611145565b50505050565b6001600160a01b0383166113475760405162461bcd60e51b815260206004820152602560248201527f45524332303a207472616e736665722066726f6d20746865207a65726f206164604482015264647265737360d81b6064820152608401610437565b6001600160a01b0382166113a95760405162461bcd60e51b815260206004820152602360248201527f45524332303a207472616e7366657220746f20746865207a65726f206164647260448201526265737360e81b6064820152608401610437565b6001600160a01b038316600090815260208190526040902054818110156114215760405162461bcd60e51b815260206004820152602660248201527f45524332303a207472616e7366657220616d6f756e7420657863656564732062604482015265616c616e636560d01b6064820152608401610437565b6001600160a01b03848116600081815260208181526040808320878703905593871680835291849020805487019055925185815290926000805160206120b2833981519152910160405180910390a36112dd565b60008061148a670de0b6b3a764000085611f82565b905082818161149b5761149b611f99565b04949350505050565b6001600160a01b0382166114fa5760405162461bcd60e51b815260206004820152601f60248201527f45524332303a206d696e7420746f20746865207a65726f2061646472657373006044820152606401610437565b806002600082825461150c9190611f40565b90915550506001600160a01b038216600081815260208181526040808320805486019055518481526000805160206120b2833981519152910160405180910390a35050565b60405163bcbe067b60e01b8152600481018290526000907f00000000000000000000000000000000000000000000000000000000000000006001600160a01b03169063bcbe067b90602401602060405180830381865afa1580156115b9573d6000803e3d6000fd5b505050506040513d601f19601f820116820180604052508101906105279190611f53565b600081815260086020526040812054156115f957506000919050565b6040516370a0823160e01b81527f0000000000000000000000000000000000000000000000000000000000000000906000906001600160a01b038316906370a082319061164a903090600401611cd2565b602060405180830381865afa158015611667573d6000803e3d6000fd5b505050506040513d601f19601f8201168201806040525081019061168b9190611f53565b90506000826001600160a01b031663ba0876528330306040518463ffffffff1660e01b81526004016116bf9392919061200d565b6020604051808303816000875af11580156116de573d6000803e3d6000fd5b505050506040513d601f19601f820116820180604052508101906117029190611f53565b9050600061170f60025490565b604051636e553f6560e01b81529091506001600160a01b03851690636e553f65906117409084903090600401611e84565b6020604051808303816000875af115801561175f573d6000803e3d6000fd5b505050506040513d601f19601f820116820180604052508101906117839190611f53565b5061178e8183612045565b60008781526008602052604090819020829055519095506001600160a01b037f0000000000000000000000000000000000000000000000000000000000000000169087907f5a8aba08a4d2cd3beffa3b10df5cc3ed8017c4024aeb5bd6a91f8284060880d1906118019089815260200190565b60405180910390a350505050919050565b61050e8363a9059cbb60e01b84846040516024016110f792919061202c565b6001600160a01b0382166118915760405162461bcd60e51b815260206004820152602160248201527f45524332303a206275726e2066726f6d20746865207a65726f206164647265736044820152607360f81b6064820152608401610437565b6001600160a01b038216600090815260208190526040902054818110156119055760405162461bcd60e51b815260206004820152602260248201527f45524332303a206275726e20616d6f756e7420657863656564732062616c616e604482015261636560f01b6064820152608401610437565b6001600160a01b0383166000818152602081815260408083208686039055600280548790039055518581529192916000805160206120b2833981519152910160405180910390a3505050565b60006119a6826040518060400160405280602081526020017f5361666545524332303a206c6f772d6c6576656c2063616c6c206661696c6564815250856001600160a01b031661112e9092919063ffffffff16565b90508051600014806119c75750808060200190518101906119c79190612058565b61050e5760405162461bcd60e51b815260206004820152602a60248201527f5361666545524332303a204552433230206f7065726174696f6e20646964206e6044820152691bdd081cdd58d8d9595960b21b6064820152608401610437565b606082471015611a875760405162461bcd60e51b815260206004820152602660248201527f416464726573733a20696e73756666696369656e742062616c616e636520666f6044820152651c8818d85b1b60d21b6064820152608401610437565b600080866001600160a01b03168587604051611aa39190612075565b60006040518083038185875af1925050503d8060008114611ae0576040519150601f19603f3d011682016040523d82523d6000602084013e611ae5565b606091505b5091509150611af687838387611b01565b979650505050505050565b60608315611b70578251600003611b69576001600160a01b0385163b611b695760405162461bcd60e51b815260206004820152601d60248201527f416464726573733a2063616c6c20746f206e6f6e2d636f6e74726163740000006044820152606401610437565b508161113d565b61113d8383815115611b855781518083602001fd5b8060405162461bcd60e51b81526004016104379190611bc3565b60005b83811015611bba578181015183820152602001611ba2565b50506000910152565b6020815260008251806020840152611be2816040850160208701611b9f565b601f01601f19169190910160400192915050565b80356001600160a01b0381168114611c0d57600080fd5b919050565b8015158114611c2057600080fd5b50565b600080600060608486031215611c3857600080fd5b611c4184611bf6565b92506020840135611c5181611c12565b91506040840135611c6181611c12565b809150509250925092565b60008060408385031215611c7f57600080fd5b611c8883611bf6565b946020939093013593505050565b600080600060608486031215611cab57600080fd5b611cb484611bf6565b9250611cc260208501611bf6565b9150604084013590509250925092565b6001600160a01b0391909116815260200190565b634e487b7160e01b600052604160045260246000fd5b604051601f8201601f191681016001600160401b0381118282101715611d2457611d24611ce6565b604052919050565b60006001600160401b03821115611d4557611d45611ce6565b5060051b60200190565b600082601f830112611d6057600080fd5b81356020611d75611d7083611d2c565b611cfc565b82815260059290921b84018101918181019086841115611d9457600080fd5b8286015b84811015611daf5780358352918301918301611d98565b509695505050505050565b600080600060608486031215611dcf57600080fd5b833592506020808501356001600160401b0380821115611dee57600080fd5b818701915087601f830112611e0257600080fd5b8135611e10611d7082611d2c565b81815260059190911b8301840190848101908a831115611e2f57600080fd5b938501935b82851015611e5457611e4585611bf6565b82529385019390850190611e34565b965050506040870135925080831115611e6c57600080fd5b5050611e7a86828701611d4f565b9150509250925092565b9182526001600160a01b0316602082015260400190565b600060208284031215611ead57600080fd5b611eb682611bf6565b9392505050565b60008060408385031215611ed057600080fd5b611ed983611bf6565b9150611ee760208401611bf6565b90509250929050565b600181811c90821680611f0457607f821691505b602082108103611f2457634e487b7160e01b600052602260045260246000fd5b50919050565b634e487b7160e01b600052601160045260246000fd5b8082018082111561052757610527611f2a565b600060208284031215611f6557600080fd5b5051919050565b634e487b7160e01b600052603260045260246000fd5b808202811582820484141761052757610527611f2a565b634e487b7160e01b600052601260045260246000fd5b600082611fcc57634e487b7160e01b600052601260045260246000fd5b500490565b600060018201611fe357611fe3611f2a565b5060010190565b600060208284031215611ffc57600080fd5b815160ff81168114611eb657600080fd5b9283526001600160a01b03918216602084015216604082015260600190565b6001600160a01b03929092168252602082015260400190565b8181038181111561052757610527611f2a565b60006020828403121561206a57600080fd5b8151611eb681611c12565b60008251612087818460208701611b9f565b919091019291505056fe8be0079c531659141344cd1fd0a4f28419497f9722a3daafe3b4186f6b6457e0ddf252ad1be2c89b69c2b068fc378daa952ba7f163c4a11628f55a4df523b3efa26469706673582212207320ba1c201ae469ab6212b7e49793213d5d6688601fd8fd998bb834b157154064736f6c63430008110033",
  "linkReferences": {},
  "deployedLinkReferences": {}
}