{
  "_format": "hh-sol-artifact-1",
  "contractName": "ERC4626Strategy",
  "sourceName": "contracts/core/project/strategies/ERC4626Strategy.sol",
  "abi": [
    {
      "inputs": [
        {
          "internalType": "string",
          "name": "name_",
          "type": "string"
        },
        {
          "internalType": "string",
          "name": "symbol_",
          "type": "string"
        },
        {
          "internalType": "address",
          "name": "erc4626_",
          "type": "address"
        },
        {
          "internalType": "address",
          "name": "manager_",
          "type": "address"
        }
      ],
      "stateMutability": "nonpayable",
      "type": "constructor"
    },
    {
      "anonymous": false,
      "inputs": [
        {
          "indexed": true,
          "internalType": "address",
          "name": "owner",
          "type": "address"
        },
        {
          "indexed": true,
          "internalType": "address",
          "name": "spender",
          "type": "address"
        },
        {
          "indexed": false,
          "internalType": "uint256",
          "name": "value",
          "type": "uint256"
        }
      ],
      "name": "Approval",
      "type": "event"
    },
    {
      "anonymous": false,
      "inputs": [
        {
          "indexed": true,
          "internalType": "uint256",
          "name": "epochIndex",
          "type": "uint256"
        },
        {
          "indexed": true,
          "internalType": "address",
          "name": "user",
          "type": "address"
        },
        {
          "indexed": true,
          "internalType": "address",
          "name": "asset",
          "type": "address"
        },
        {
          "indexed": false,
          "internalType": "uint256",
          "name": "underlyingAmountIn",
          "type": "uint256"
        }
      ],
      "name": "Deposit",
      "type": "event"
    },
    {
      "anonymous": false,
      "inputs": [
        {
          "indexed": true,
          "internalType": "uint256",
          "name": "epochIndex",
          "type": "uint256"
        },
        {
          "indexed": true,
          "internalType": "address",
          "name": "underlyingAsset",
          "type": "address"
        },
        {
          "indexed": true,
          "internalType": "address",
          "name": "beneficiary",
          "type": "address"
        },
        {
          "indexed": false,
          "internalType": "uint256",
          "name": "amount",
          "type": "uint256"
        }
      ],
      "name": "DistributeYield",
      "type": "event"
    },
    {
      "anonymous": false,
      "inputs": [
        {
          "indexed": true,
          "internalType": "uint256",
          "name": "epoch",
          "type": "uint256"
        },
        {
          "indexed": true,
          "internalType": "address",
          "name": "asset",
          "type": "address"
        },
        {
          "indexed": false,
          "internalType": "uint256",
          "name": "yieldAmount",
          "type": "uint256"
        }
      ],
      "name": "EpochYieldClaim",
      "type": "event"
    },
    {
      "anonymous": false,
      "inputs": [
        {
          "indexed": true,
          "internalType": "address",
          "name": "previousOwner",
          "type": "address"
        },
        {
          "indexed": true,
          "internalType": "address",
          "name": "newOwner",
          "type": "address"
        }
      ],
      "name": "OwnershipTransferred",
      "type": "event"
    },
    {
      "anonymous": false,
      "inputs": [
        {
          "indexed": true,
          "internalType": "address",
          "name": "from",
          "type": "address"
        },
        {
          "indexed": true,
          "internalType": "address",
          "name": "to",
          "type": "address"
        },
        {
          "indexed": false,
          "internalType": "uint256",
          "name": "value",
          "type": "uint256"
        }
      ],
      "name": "Transfer",
      "type": "event"
    },
    {
      "anonymous": false,
      "inputs": [
        {
          "indexed": true,
          "internalType": "uint256",
          "name": "epochIndex",
          "type": "uint256"
        },
        {
          "indexed": true,
          "internalType": "address",
          "name": "user",
          "type": "address"
        },
        {
          "indexed": true,
          "internalType": "address",
          "name": "asset",
          "type": "address"
        },
        {
          "indexed": false,
          "internalType": "uint256",
          "name": "underlyingAmountOut",
          "type": "uint256"
        }
      ],
      "name": "Withdraw",
      "type": "event"
    },
    {
      "inputs": [],
      "name": "BENEFICIARY_DONATION_MANAGER",
      "outputs": [
        {
          "internalType": "address",
          "name": "",
          "type": "address"
        }
      ],
      "stateMutability": "view",
      "type": "function"
    },
    {
      "inputs": [],
      "name": "MAX_BPS_DENOMINATOR",
      "outputs": [
        {
          "internalType": "uint256",
          "name": "",
          "type": "uint256"
        }
      ],
      "stateMutability": "view",
      "type": "function"
    },
    {
      "inputs": [],
      "name": "UNDERLYING_TOKEN",
      "outputs": [
        {
          "internalType": "address",
          "name": "",
          "type": "address"
        }
      ],
      "stateMutability": "view",
      "type": "function"
    },
    {
      "inputs": [],
      "name": "YIELD_TOKEN",
      "outputs": [
        {
          "internalType": "address",
          "name": "",
          "type": "address"
        }
      ],
      "stateMutability": "view",
      "type": "function"
    },
    {
      "inputs": [
        {
          "internalType": "address",
          "name": "owner",
          "type": "address"
        },
        {
          "internalType": "address",
          "name": "spender",
          "type": "address"
        }
      ],
      "name": "allowance",
      "outputs": [
        {
          "internalType": "uint256",
          "name": "",
          "type": "uint256"
        }
      ],
      "stateMutability": "view",
      "type": "function"
    },
    {
      "inputs": [
        {
          "internalType": "address",
          "name": "spender",
          "type": "address"
        },
        {
          "internalType": "uint256",
          "name": "amount",
          "type": "uint256"
        }
      ],
      "name": "approve",
      "outputs": [
        {
          "internalType": "bool",
          "name": "",
          "type": "bool"
        }
      ],
      "stateMutability": "nonpayable",
      "type": "function"
    },
    {
      "inputs": [],
      "name": "assetDetails",
      "outputs": [
        {
          "internalType": "address",
          "name": "asset",
          "type": "address"
        },
        {
          "internalType": "uint8",
          "name": "decimals",
          "type": "uint8"
        }
      ],
      "stateMutability": "view",
      "type": "function"
    },
    {
      "inputs": [
        {
          "internalType": "address",
          "name": "account",
          "type": "address"
        }
      ],
      "name": "balanceOf",
      "outputs": [
        {
          "internalType": "uint256",
          "name": "",
          "type": "uint256"
        }
      ],
      "stateMutability": "view",
      "type": "function"
    },
    {
      "inputs": [],
      "name": "claimOwnership",
      "outputs": [],
      "stateMutability": "nonpayable",
      "type": "function"
    },
    {
      "inputs": [
        {
          "internalType": "uint256",
          "name": "epochIndex",
          "type": "uint256"
        },
        {
          "internalType": "address[]",
          "name": "beneficiaries",
          "type": "address[]"
        },
        {
          "internalType": "uint256[]",
          "name": "basisPoints",
          "type": "uint256[]"
        }
      ],
      "name": "claimYieldAndDistributeByEpoch",
      "outputs": [
        {
          "internalType": "uint256",
          "name": "yield",
          "type": "uint256"
        },
        {
          "internalType": "address",
          "name": "token",
          "type": "address"
        }
      ],
      "stateMutability": "nonpayable",
      "type": "function"
    },
    {
      "inputs": [],
      "name": "decimals",
      "outputs": [
        {
          "internalType": "uint8",
          "name": "",
          "type": "uint8"
        }
      ],
      "stateMutability": "view",
      "type": "function"
    },
    {
      "inputs": [
        {
          "internalType": "address",
          "name": "spender",
          "type": "address"
        },
        {
          "internalType": "uint256",
          "name": "subtractedValue",
          "type": "uint256"
        }
      ],
      "name": "decreaseAllowance",
      "outputs": [
        {
          "internalType": "bool",
          "name": "",
          "type": "bool"
        }
      ],
      "stateMutability": "nonpayable",
      "type": "function"
    },
    {
      "inputs": [
        {
          "internalType": "address",
          "name": "token",
          "type": "address"
        },
        {
          "internalType": "uint256",
          "name": "underlyingAmount",
          "type": "uint256"
        }
      ],
      "name": "deposit",
      "outputs": [
        {
          "internalType": "uint256",
          "name": "shares",
          "type": "uint256"
        }
      ],
      "stateMutability": "nonpayable",
      "type": "function"
    },
    {
      "inputs": [],
      "name": "exchangeRate",
      "outputs": [
        {
          "internalType": "uint256",
          "name": "rate",
          "type": "uint256"
        }
      ],
      "stateMutability": "view",
      "type": "function"
    },
    {
      "inputs": [
        {
          "internalType": "address",
          "name": "user",
          "type": "address"
        }
      ],
      "name": "getCurrentSharesAndUnderlyingStake",
      "outputs": [
        {
          "internalType": "uint256",
          "name": "shares",
          "type": "uint256"
        },
        {
          "internalType": "uint256",
          "name": "underlying",
          "type": "uint256"
        }
      ],
      "stateMutability": "view",
      "type": "function"
    },
    {
      "inputs": [
        {
          "internalType": "address",
          "name": "spender",
          "type": "address"
        },
        {
          "internalType": "uint256",
          "name": "addedValue",
          "type": "uint256"
        }
      ],
      "name": "increaseAllowance",
      "outputs": [
        {
          "internalType": "bool",
          "name": "",
          "type": "bool"
        }
      ],
      "stateMutability": "nonpayable",
      "type": "function"
    },
    {
      "inputs": [],
      "name": "name",
      "outputs": [
        {
          "internalType": "string",
          "name": "",
          "type": "string"
        }
      ],
      "stateMutability": "view",
      "type": "function"
    },
    {
      "inputs": [],
      "name": "owner",
      "outputs": [
        {
          "internalType": "address",
          "name": "",
          "type": "address"
        }
      ],
      "stateMutability": "view",
      "type": "function"
    },
    {
      "inputs": [],
      "name": "pendingOwner",
      "outputs": [
        {
          "internalType": "address",
          "name": "",
          "type": "address"
        }
      ],
      "stateMutability": "view",
      "type": "function"
    },
    {
      "inputs": [],
      "name": "symbol",
      "outputs": [
        {
          "internalType": "string",
          "name": "",
          "type": "string"
        }
      ],
      "stateMutability": "view",
      "type": "function"
    },
    {
      "inputs": [],
      "name": "totalSupply",
      "outputs": [
        {
          "internalType": "uint256",
          "name": "",
          "type": "uint256"
        }
      ],
      "stateMutability": "view",
      "type": "function"
    },
    {
      "inputs": [
        {
          "internalType": "address",
          "name": "to",
          "type": "address"
        },
        {
          "internalType": "uint256",
          "name": "amount",
          "type": "uint256"
        }
      ],
      "name": "transfer",
      "outputs": [
        {
          "internalType": "bool",
          "name": "",
          "type": "bool"
        }
      ],
      "stateMutability": "nonpayable",
      "type": "function"
    },
    {
      "inputs": [
        {
          "internalType": "address",
          "name": "from",
          "type": "address"
        },
        {
          "internalType": "address",
          "name": "to",
          "type": "address"
        },
        {
          "internalType": "uint256",
          "name": "amount",
          "type": "uint256"
        }
      ],
      "name": "transferFrom",
      "outputs": [
        {
          "internalType": "bool",
          "name": "",
          "type": "bool"
        }
      ],
      "stateMutability": "nonpayable",
      "type": "function"
    },
    {
      "inputs": [
        {
          "internalType": "address",
          "name": "newOwner",
          "type": "address"
        },
        {
          "internalType": "bool",
          "name": "direct",
          "type": "bool"
        },
        {
          "internalType": "bool",
          "name": "renounce",
          "type": "bool"
        }
      ],
      "name": "transferOwnership",
      "outputs": [],
      "stateMutability": "nonpayable",
      "type": "function"
    },
    {
      "inputs": [
        {
          "internalType": "address",
          "name": "token",
          "type": "address"
        },
        {
          "internalType": "uint256",
          "name": "underlyingAmount",
          "type": "uint256"
        }
      ],
      "name": "withdraw",
      "outputs": [
        {
          "internalType": "uint256",
          "name": "underlyingAmountOut",
          "type": "uint256"
        }
      ],
      "stateMutability": "nonpayable",
      "type": "function"
    }
  ],
  "bytecode": "0x60e06040523480156200001157600080fd5b5060405162002bd438038062002bd4833981016040819052620000349162000614565b8383600362000044838262000731565b50600462000053828262000731565b5050600580546001600160a01b031916339081179091556040519091506000907f8be0079c531659141344cd1fd0a4f28419497f9722a3daafe3b4186f6b6457e0908290a3806001600160a01b03166080816001600160a01b031681525050816001600160a01b03166338d52e0f6040518163ffffffff1660e01b8152600401602060405180830381865afa158015620000f1573d6000803e3d6000fd5b505050506040513d601f19601f82011682018060405250810190620001179190620007fd565b6001600160a01b0390811660a081905290831660c05262000148908360001962000152602090811b6200106617901c565b50505050620008b3565b801580620001d05750604051636eb1769f60e11b81523060048201526001600160a01b03838116602483015284169063dd62ed3e90604401602060405180830381865afa158015620001a8573d6000803e3d6000fd5b505050506040513d601f19601f82011682018060405250810190620001ce919062000822565b155b620002485760405162461bcd60e51b815260206004820152603660248201527f5361666545524332303a20617070726f76652066726f6d206e6f6e2d7a65726f60448201527f20746f206e6f6e2d7a65726f20616c6c6f77616e63650000000000000000000060648201526084015b60405180910390fd5b604080516001600160a01b038416602482015260448082018490528251808303909101815260649091019091526020810180516001600160e01b0390811663095ea7b360e01b17909152620002a0918591620002a516565b505050565b600062000301826040518060400160405280602081526020017f5361666545524332303a206c6f772d6c6576656c2063616c6c206661696c6564815250856001600160a01b03166200038660201b620011a1179092919060201c565b9050805160001480620003255750808060200190518101906200032591906200083c565b620002a05760405162461bcd60e51b815260206004820152602a60248201527f5361666545524332303a204552433230206f7065726174696f6e20646964206e6044820152691bdd081cdd58d8d9595960b21b60648201526084016200023f565b60606200039784846000856200039f565b949350505050565b606082471015620004025760405162461bcd60e51b815260206004820152602660248201527f416464726573733a20696e73756666696369656e742062616c616e636520666f6044820152651c8818d85b1b60d21b60648201526084016200023f565b600080866001600160a01b0316858760405162000420919062000860565b60006040518083038185875af1925050503d80600081146200045f576040519150601f19603f3d011682016040523d82523d6000602084013e62000464565b606091505b509092509050620004788783838762000483565b979650505050505050565b60608315620004f7578251600003620004ef576001600160a01b0385163b620004ef5760405162461bcd60e51b815260206004820152601d60248201527f416464726573733a2063616c6c20746f206e6f6e2d636f6e747261637400000060448201526064016200023f565b508162000397565b6200039783838151156200050e5781518083602001fd5b8060405162461bcd60e51b81526004016200023f91906200087e565b634e487b7160e01b600052604160045260246000fd5b60005b838110156200055d57818101518382015260200162000543565b50506000910152565b600082601f8301126200057857600080fd5b81516001600160401b03808211156200059557620005956200052a565b604051601f8301601f19908116603f01168101908282118183101715620005c057620005c06200052a565b81604052838152866020858801011115620005da57600080fd5b620005ed84602083016020890162000540565b9695505050505050565b80516001600160a01b03811681146200060f57600080fd5b919050565b600080600080608085870312156200062b57600080fd5b84516001600160401b03808211156200064357600080fd5b620006518883890162000566565b955060208701519150808211156200066857600080fd5b50620006778782880162000566565b9350506200068860408601620005f7565b91506200069860608601620005f7565b905092959194509250565b600181811c90821680620006b857607f821691505b602082108103620006d957634e487b7160e01b600052602260045260246000fd5b50919050565b601f821115620002a057600081815260208120601f850160051c81016020861015620007085750805b601f850160051c820191505b81811015620007295782815560010162000714565b505050505050565b81516001600160401b038111156200074d576200074d6200052a565b62000765816200075e8454620006a3565b84620006df565b602080601f8311600181146200079d5760008415620007845750858301515b600019600386901b1c1916600185901b17855562000729565b600085815260208120601f198616915b82811015620007ce57888601518255948401946001909101908401620007ad565b5085821015620007ed5787850151600019600388901b60f8161c191681555b5050505050600190811b01905550565b6000602082840312156200081057600080fd5b6200081b82620005f7565b9392505050565b6000602082840312156200083557600080fd5b5051919050565b6000602082840312156200084f57600080fd5b815180151581146200081b57600080fd5b600082516200087481846020870162000540565b9190910192915050565b60208152600082518060208401526200089f81604085016020870162000540565b601f01601f19169190910160400192915050565b60805160a05160c0516122656200096f60003960008181610231015281816105c60152818161070401528181610cac01528181610eaf0152818161137a01526115ee0152600081816101b801528181610642015281816106c5015281816107c101528181610aa301528181610aff01528181610b7701528181610bc201528181610be501528181610dd601528181610ff10152611795015260008181610279015281816108e8015281816109ba015261155001526122656000f3fe608060405234801561001057600080fd5b50600436106101335760003560e01c806306fdde0314610138578063078dfbe714610156578063095ea7b31461016b57806318160ddd1461018e57806323b872dd146101a057806329db1be6146101b3578063313ce567146101e757806339509351146101f65780633ba0b9a91461020957806347e7ef24146102115780634e71e0c814610224578063544bc96d1461022c5780635ed1f016146102535780636b5561161461027457806370a082311461029b57806371248ac4146102ae5780638c405071146102b75780638da5cb5b146102e057806395d89b41146102f3578063a0c750df146102fb578063a457c2d714610323578063a9059cbb14610336578063dd62ed3e14610349578063e30c39781461035c578063f3fef3a31461036f575b600080fd5b610140610382565b60405161014d9190611d3c565b60405180910390f35b610169610164366004611d97565b610414565b005b61017e610179366004611de0565b610546565b604051901515815260200161014d565b6002545b60405190815260200161014d565b61017e6101ae366004611e0a565b610560565b6101da7f000000000000000000000000000000000000000000000000000000000000000081565b60405161014d9190611e46565b6040516012815260200161014d565b61017e610204366004611de0565b610584565b6101926105a6565b61019261021f366004611de0565b61063e565b610169610834565b6101da7f000000000000000000000000000000000000000000000000000000000000000081565b610266610261366004611f2e565b6108e0565b60405161014d929190611ff8565b6101da7f000000000000000000000000000000000000000000000000000000000000000081565b6101926102a936600461200f565b610ba2565b61019261271081565b6102bf610bbd565b604080516001600160a01b03909316835260ff90911660208301520161014d565b6005546101da906001600160a01b031681565b610140610c6b565b61030e61030936600461200f565b610c7a565b6040805192835260208301919091520161014d565b61017e610331366004611de0565b610d1e565b61017e610344366004611de0565b610d99565b610192610357366004612031565b610da7565b6006546101da906001600160a01b031681565b61019261037d366004611de0565b610dd2565b60606003805461039190612064565b80601f01602080910402602001604051908101604052809291908181526020018280546103bd90612064565b801561040a5780601f106103df5761010080835404028352916020019161040a565b820191906000526020600020905b8154815290600101906020018083116103ed57829003601f168201915b5050505050905090565b6005546001600160a01b031633146104735760405162461bcd60e51b815260206004820181905260248201527f4f776e61626c653a2063616c6c6572206973206e6f7420746865206f776e657260448201526064015b60405180910390fd5b8115610525576001600160a01b03831615158061048d5750805b6104d15760405162461bcd60e51b81526020600482015260156024820152744f776e61626c653a207a65726f206164647265737360581b604482015260640161046a565b6005546040516001600160a01b038086169216906000805160206121f083398151915290600090a3600580546001600160a01b0385166001600160a01b031991821617909155600680549091169055505050565b600680546001600160a01b0319166001600160a01b0385161790555b505050565b6000336105548185856111b8565b60019150505b92915050565b60003361056e8582856112dc565b610579858585611356565b506001949350505050565b6000336105548185856105978383610da7565b6105a191906120b4565b6111b8565b6040516303d1689d60e11b8152670de0b6b3a764000060048201526000907f00000000000000000000000000000000000000000000000000000000000000006001600160a01b0316906307a2d13a90602401602060405180830381865afa158015610615573d6000803e3d6000fd5b505050506040513d601f19601f8201168201806040525081019061063991906120c7565b905090565b60007f00000000000000000000000000000000000000000000000000000000000000006001600160a01b0316836001600160a01b0316146106b85760405162461bcd60e51b81526020600482015260146024820152732737ba103ab73232b9363cb4b733903a37b5b2b760611b604482015260640161046a565b6106ed6001600160a01b037f000000000000000000000000000000000000000000000000000000000000000016333085611452565b604051636e553f6560e01b81526001600160a01b037f00000000000000000000000000000000000000000000000000000000000000001690636e553f659061073b9085903090600401611ff8565b6020604051808303816000875af115801561075a573d6000803e3d6000fd5b505050506040513d601f19601f8201168201806040525081019061077e91906120c7565b336000908152600860205260408120805492935083929091906107a29084906120b4565b909155506107b29050338361148a565b60006107bd42611537565b90507f00000000000000000000000000000000000000000000000000000000000000006001600160a01b0316336001600160a01b0316827f2c0f148b435140de488c1b34647f1511c646f7077e87007bacf22ef9977a16d88660405161082591815260200190565b60405180910390a45092915050565b6006546001600160a01b031633811461088f5760405162461bcd60e51b815260206004820181905260248201527f4f776e61626c653a2063616c6c657220213d2070656e64696e67206f776e6572604482015260640161046a565b6005546040516001600160a01b038084169216906000805160206121f083398151915290600090a3600580546001600160a01b039092166001600160a01b0319928316179055600680549091169055565b6000808460007f00000000000000000000000000000000000000000000000000000000000000006001600160a01b03166323381bd26040518163ffffffff1660e01b8152600401602060405180830381865afa158015610944573d6000803e3d6000fd5b505050506040513d601f19601f8201168201806040525081019061096891906120c7565b90508082116109af5760405162461bcd60e51b8152602060048201526013602482015272115c1bd8da081a185cc81b9bdd08195b991959606a1b604482015260640161046a565b336001600160a01b037f00000000000000000000000000000000000000000000000000000000000000001614610a365760405162461bcd60e51b815260206004820152602660248201527f4f6e6c792063616e2062652063616c6c656420627920646f6e6174696f6e206d60448201526530b730b3b2b960d11b606482015260840161046a565b610a3f876115c3565b935060005b8651811015610b74576000612710878381518110610a6457610a646120e0565b602002602001015187610a7791906120f6565b610a81919061210d565b9050610ada888381518110610a9857610a986120e0565b6020026020010151827f00000000000000000000000000000000000000000000000000000000000000006001600160a01b03166117f99092919063ffffffff16565b878281518110610aec57610aec6120e0565b60200260200101516001600160a01b03167f00000000000000000000000000000000000000000000000000000000000000006001600160a01b03168a7f811c45902c7a4eb7336f5a64a7adf5c8eb39a75380c34d3e55c82117ddb2773c84604051610b5991815260200190565b60405180910390a45080610b6c8161212f565b915050610a44565b507f000000000000000000000000000000000000000000000000000000000000000092505050935093915050565b6001600160a01b031660009081526020819052604090205490565b6000807f000000000000000000000000000000000000000000000000000000000000000091507f00000000000000000000000000000000000000000000000000000000000000006001600160a01b031663313ce5676040518163ffffffff1660e01b8152600401602060405180830381865afa158015610c41573d6000803e3d6000fd5b505050506040513d601f19601f82011682018060405250810190610c659190612148565b90509091565b60606004805461039190612064565b6001600160a01b038181166000908152600860205260408082205490516303d1689d60e11b81526004810182905290927f000000000000000000000000000000000000000000000000000000000000000016906307a2d13a90602401602060405180830381865afa158015610cf3573d6000803e3d6000fd5b505050506040513d601f19601f82011682018060405250810190610d1791906120c7565b9050915091565b60003381610d2c8286610da7565b905083811015610d8c5760405162461bcd60e51b815260206004820152602560248201527f45524332303a2064656372656173656420616c6c6f77616e63652062656c6f77604482015264207a65726f60d81b606482015260840161046a565b61057982868684036111b8565b600033610554818585611356565b6001600160a01b03918216600090815260016020908152604080832093909416825291909152205490565b60007f00000000000000000000000000000000000000000000000000000000000000006001600160a01b0316836001600160a01b031614610e455760405162461bcd60e51b815260206004820152600d60248201526c24b73b30b634b2103a37b5b2b760991b604482015260640161046a565b81610e4f33610ba2565b1015610ead5760405162461bcd60e51b815260206004820152602760248201527f416d6f756e74207265717565737465642065786365656473206465706f73697460448201526608185b5bdd5b9d60ca1b606482015260840161046a565b7f0000000000000000000000000000000000000000000000000000000000000000610ed83384611818565b6040516363737ac960e11b8152600481018490526000906001600160a01b0383169063c6e6f59290602401602060405180830381865afa158015610f20573d6000803e3d6000fd5b505050506040513d601f19601f82011682018060405250810190610f4491906120c7565b33600090815260086020526040812080549293508392909190610f6890849061216b565b9091555050604051635d043b2960e11b81526001600160a01b0383169063ba08765290610f9d9084903390309060040161217e565b6020604051808303816000875af1158015610fbc573d6000803e3d6000fd5b505050506040513d601f19601f82011682018060405250810190610fe091906120c7565b92506000610fed42611537565b90507f00000000000000000000000000000000000000000000000000000000000000006001600160a01b0316336001600160a01b0316827ffeb2000dca3e617cd6f3a8bbb63014bb54a124aac6ccbf73ee7229b4cd01f1208860405161105591815260200190565b60405180910390a450505092915050565b8015806110e05750604051636eb1769f60e11b81523060048201526001600160a01b03838116602483015284169063dd62ed3e90604401602060405180830381865afa1580156110ba573d6000803e3d6000fd5b505050506040513d601f19601f820116820180604052508101906110de91906120c7565b155b61114b5760405162461bcd60e51b815260206004820152603660248201527f5361666545524332303a20617070726f76652066726f6d206e6f6e2d7a65726f60448201527520746f206e6f6e2d7a65726f20616c6c6f77616e636560501b606482015260840161046a565b6105418363095ea7b360e01b848460405160240161116a92919061219d565b60408051601f198184030181529190526020810180516001600160e01b03166001600160e01b031990931692909217909152611938565b60606111b08484600085611a0d565b949350505050565b6001600160a01b03831661121a5760405162461bcd60e51b8152602060048201526024808201527f45524332303a20617070726f76652066726f6d20746865207a65726f206164646044820152637265737360e01b606482015260840161046a565b6001600160a01b03821661127b5760405162461bcd60e51b815260206004820152602260248201527f45524332303a20617070726f766520746f20746865207a65726f206164647265604482015261737360f01b606482015260840161046a565b6001600160a01b0383811660008181526001602090815260408083209487168084529482529182902085905590518481527f8c5be1e5ebec7d5bd14f71427d1e84f3dd0314c0f7b2291e5b200ac8c7c3b925910160405180910390a3505050565b60006112e88484610da7565b9050600019811461135057818110156113435760405162461bcd60e51b815260206004820152601d60248201527f45524332303a20696e73756666696369656e7420616c6c6f77616e6365000000604482015260640161046a565b61135084848484036111b8565b50505050565b611361838383611ae8565b6040516363737ac960e11b8152600481018290526000907f00000000000000000000000000000000000000000000000000000000000000006001600160a01b03169063c6e6f59290602401602060405180830381865afa1580156113c9573d6000803e3d6000fd5b505050506040513d601f19601f820116820180604052508101906113ed91906120c7565b6001600160a01b03851660009081526008602052604081208054929350839290919061141a90849061216b565b90915550506001600160a01b038316600090815260086020526040812080548392906114479084906120b4565b909155505050505050565b6040516001600160a01b03808516602483015283166044820152606481018290526113509085906323b872dd60e01b9060840161116a565b6001600160a01b0382166114e05760405162461bcd60e51b815260206004820152601f60248201527f45524332303a206d696e7420746f20746865207a65726f206164647265737300604482015260640161046a565b80600260008282546114f291906120b4565b90915550506001600160a01b03821660008181526020818152604080832080548601905551848152600080516020612210833981519152910160405180910390a35050565b60405163bcbe067b60e01b8152600481018290526000907f00000000000000000000000000000000000000000000000000000000000000006001600160a01b03169063bcbe067b90602401602060405180830381865afa15801561159f573d6000803e3d6000fd5b505050506040513d601f19601f8201168201806040525081019061055a91906120c7565b600081815260076020526040812054156115df57506000919050565b6040516370a0823160e01b81527f0000000000000000000000000000000000000000000000000000000000000000906000906001600160a01b038316906370a0823190611630903090600401611e46565b602060405180830381865afa15801561164d573d6000803e3d6000fd5b505050506040513d601f19601f8201168201806040525081019061167191906120c7565b90506000826001600160a01b031663ba0876528330306040518463ffffffff1660e01b81526004016116a59392919061217e565b6020604051808303816000875af11580156116c4573d6000803e3d6000fd5b505050506040513d601f19601f820116820180604052508101906116e891906120c7565b905060006116f560025490565b604051636e553f6560e01b81529091506001600160a01b03851690636e553f65906117269084903090600401611ff8565b6020604051808303816000875af1158015611745573d6000803e3d6000fd5b505050506040513d601f19601f8201168201806040525081019061176991906120c7565b50611774818361216b565b60008781526007602052604090819020829055519095506001600160a01b037f0000000000000000000000000000000000000000000000000000000000000000169087907f5a8aba08a4d2cd3beffa3b10df5cc3ed8017c4024aeb5bd6a91f8284060880d1906117e79089815260200190565b60405180910390a3505050505b919050565b6105418363a9059cbb60e01b848460405160240161116a92919061219d565b6001600160a01b0382166118785760405162461bcd60e51b815260206004820152602160248201527f45524332303a206275726e2066726f6d20746865207a65726f206164647265736044820152607360f81b606482015260840161046a565b6001600160a01b038216600090815260208190526040902054818110156118ec5760405162461bcd60e51b815260206004820152602260248201527f45524332303a206275726e20616d6f756e7420657863656564732062616c616e604482015261636560f01b606482015260840161046a565b6001600160a01b038316600081815260208181526040808320868603905560028054879003905551858152919291600080516020612210833981519152910160405180910390a3505050565b600061198d826040518060400160405280602081526020017f5361666545524332303a206c6f772d6c6576656c2063616c6c206661696c6564815250856001600160a01b03166111a19092919063ffffffff16565b90508051600014806119ae5750808060200190518101906119ae91906121b6565b6105415760405162461bcd60e51b815260206004820152602a60248201527f5361666545524332303a204552433230206f7065726174696f6e20646964206e6044820152691bdd081cdd58d8d9595960b21b606482015260840161046a565b606082471015611a6e5760405162461bcd60e51b815260206004820152602660248201527f416464726573733a20696e73756666696369656e742062616c616e636520666f6044820152651c8818d85b1b60d21b606482015260840161046a565b600080866001600160a01b03168587604051611a8a91906121d3565b60006040518083038185875af1925050503d8060008114611ac7576040519150601f19603f3d011682016040523d82523d6000602084013e611acc565b606091505b5091509150611add87838387611c7a565b979650505050505050565b6001600160a01b038316611b4c5760405162461bcd60e51b815260206004820152602560248201527f45524332303a207472616e736665722066726f6d20746865207a65726f206164604482015264647265737360d81b606482015260840161046a565b6001600160a01b038216611bae5760405162461bcd60e51b815260206004820152602360248201527f45524332303a207472616e7366657220746f20746865207a65726f206164647260448201526265737360e81b606482015260840161046a565b6001600160a01b03831660009081526020819052604090205481811015611c265760405162461bcd60e51b815260206004820152602660248201527f45524332303a207472616e7366657220616d6f756e7420657863656564732062604482015265616c616e636560d01b606482015260840161046a565b6001600160a01b0384811660008181526020818152604080832087870390559387168083529184902080548701905592518581529092600080516020612210833981519152910160405180910390a3611350565b60608315611ce9578251600003611ce2576001600160a01b0385163b611ce25760405162461bcd60e51b815260206004820152601d60248201527f416464726573733a2063616c6c20746f206e6f6e2d636f6e7472616374000000604482015260640161046a565b50816111b0565b6111b08383815115611cfe5781518083602001fd5b8060405162461bcd60e51b815260040161046a9190611d3c565b60005b83811015611d33578181015183820152602001611d1b565b50506000910152565b6020815260008251806020840152611d5b816040850160208701611d18565b601f01601f19169190910160400192915050565b80356001600160a01b03811681146117f457600080fd5b8015158114611d9457600080fd5b50565b600080600060608486031215611dac57600080fd5b611db584611d6f565b92506020840135611dc581611d86565b91506040840135611dd581611d86565b809150509250925092565b60008060408385031215611df357600080fd5b611dfc83611d6f565b946020939093013593505050565b600080600060608486031215611e1f57600080fd5b611e2884611d6f565b9250611e3660208501611d6f565b9150604084013590509250925092565b6001600160a01b0391909116815260200190565b634e487b7160e01b600052604160045260246000fd5b604051601f8201601f191681016001600160401b0381118282101715611e9857611e98611e5a565b604052919050565b60006001600160401b03821115611eb957611eb9611e5a565b5060051b60200190565b600082601f830112611ed457600080fd5b81356020611ee9611ee483611ea0565b611e70565b82815260059290921b84018101918181019086841115611f0857600080fd5b8286015b84811015611f235780358352918301918301611f0c565b509695505050505050565b600080600060608486031215611f4357600080fd5b833592506020808501356001600160401b0380821115611f6257600080fd5b818701915087601f830112611f7657600080fd5b8135611f84611ee482611ea0565b81815260059190911b8301840190848101908a831115611fa357600080fd5b938501935b82851015611fc857611fb985611d6f565b82529385019390850190611fa8565b965050506040870135925080831115611fe057600080fd5b5050611fee86828701611ec3565b9150509250925092565b9182526001600160a01b0316602082015260400190565b60006020828403121561202157600080fd5b61202a82611d6f565b9392505050565b6000806040838503121561204457600080fd5b61204d83611d6f565b915061205b60208401611d6f565b90509250929050565b600181811c9082168061207857607f821691505b60208210810361209857634e487b7160e01b600052602260045260246000fd5b50919050565b634e487b7160e01b600052601160045260246000fd5b8082018082111561055a5761055a61209e565b6000602082840312156120d957600080fd5b5051919050565b634e487b7160e01b600052603260045260246000fd5b808202811582820484141761055a5761055a61209e565b60008261212a57634e487b7160e01b600052601260045260246000fd5b500490565b6000600182016121415761214161209e565b5060010190565b60006020828403121561215a57600080fd5b815160ff8116811461202a57600080fd5b8181038181111561055a5761055a61209e565b9283526001600160a01b03918216602084015216604082015260600190565b6001600160a01b03929092168252602082015260400190565b6000602082840312156121c857600080fd5b815161202a81611d86565b600082516121e5818460208701611d18565b919091019291505056fe8be0079c531659141344cd1fd0a4f28419497f9722a3daafe3b4186f6b6457e0ddf252ad1be2c89b69c2b068fc378daa952ba7f163c4a11628f55a4df523b3efa26469706673582212202d8ea1df549fca30941d456986d0f4667150b34af970de33da9928ed38ca959664736f6c63430008110033",
  "linkReferences": {},
  "deployedLinkReferences": {}
}