{
  "_format": "hh-sol-artifact-1",
  "contractName": "GmpDonationRelayer",
  "sourceName": "contracts/core/project/gmp/GmpDonationRelayer.sol",
  "abi": [
    {
      "inputs": [
        {
          "internalType": "address",
          "name": "gateway_",
          "type": "address"
        },
        {
          "internalType": "address",
          "name": "gasReceiver_",
          "type": "address"
        },
        {
          "internalType": "address",
          "name": "token_",
          "type": "address"
        }
      ],
      "stateMutability": "nonpayable",
      "type": "constructor"
    },
    {
      "inputs": [],
      "name": "InvalidAddress",
      "type": "error"
    },
    {
      "inputs": [],
      "name": "NotApprovedByGateway",
      "type": "error"
    },
    {
      "anonymous": false,
      "inputs": [
        {
          "indexed": true,
          "internalType": "address",
          "name": "sender",
          "type": "address"
        },
        {
          "indexed": true,
          "internalType": "uint256",
          "name": "srcChainId",
          "type": "uint256"
        },
        {
          "indexed": true,
          "internalType": "uint256",
          "name": "beneificiaryIndex",
          "type": "uint256"
        },
        {
          "indexed": false,
          "internalType": "address",
          "name": "token",
          "type": "address"
        },
        {
          "indexed": false,
          "internalType": "uint256",
          "name": "amount",
          "type": "uint256"
        }
      ],
      "name": "ExecuteCrossChainDonation",
      "type": "event"
    },
    {
      "inputs": [
        {
          "internalType": "bytes32",
          "name": "commandId",
          "type": "bytes32"
        },
        {
          "internalType": "string",
          "name": "sourceChain",
          "type": "string"
        },
        {
          "internalType": "string",
          "name": "sourceAddress",
          "type": "string"
        },
        {
          "internalType": "bytes",
          "name": "payload",
          "type": "bytes"
        }
      ],
      "name": "execute",
      "outputs": [],
      "stateMutability": "nonpayable",
      "type": "function"
    },
    {
      "inputs": [
        {
          "internalType": "string",
          "name": "destChain",
          "type": "string"
        },
        {
          "internalType": "string",
          "name": "destAddress",
          "type": "string"
        },
        {
          "internalType": "uint256",
          "name": "beneficiaryIndex",
          "type": "uint256"
        },
        {
          "internalType": "uint256",
          "name": "amount",
          "type": "uint256"
        },
        {
          "internalType": "uint256",
          "name": "donationType",
          "type": "uint256"
        }
      ],
      "name": "executeMainDonation",
      "outputs": [],
      "stateMutability": "payable",
      "type": "function"
    },
    {
      "inputs": [
        {
          "internalType": "bytes32",
          "name": "commandId",
          "type": "bytes32"
        },
        {
          "internalType": "string",
          "name": "sourceChain",
          "type": "string"
        },
        {
          "internalType": "string",
          "name": "sourceAddress",
          "type": "string"
        },
        {
          "internalType": "bytes",
          "name": "payload",
          "type": "bytes"
        },
        {
          "internalType": "string",
          "name": "tokenSymbol",
          "type": "string"
        },
        {
          "internalType": "uint256",
          "name": "amount",
          "type": "uint256"
        }
      ],
      "name": "executeWithToken",
      "outputs": [],
      "stateMutability": "nonpayable",
      "type": "function"
    },
    {
      "inputs": [],
      "name": "gateway",
      "outputs": [
        {
          "internalType": "contract IAxelarGateway",
          "name": "",
          "type": "address"
        }
      ],
      "stateMutability": "view",
      "type": "function"
    },
    {
      "inputs": [],
      "name": "getAxelarGasService",
      "outputs": [
        {
          "internalType": "address",
          "name": "service",
          "type": "address"
        }
      ],
      "stateMutability": "view",
      "type": "function"
    },
    {
      "inputs": [],
      "name": "getSupportedToken",
      "outputs": [
        {
          "internalType": "address",
          "name": "token",
          "type": "address"
        }
      ],
      "stateMutability": "view",
      "type": "function"
    },
    {
      "inputs": [],
      "name": "lastBeneficiaryIndex",
      "outputs": [
        {
          "internalType": "uint256",
          "name": "",
          "type": "uint256"
        }
      ],
      "stateMutability": "view",
      "type": "function"
    }
  ],
  "bytecode": "0x60e060405234801561001057600080fd5b50604051610d7d380380610d7d83398101604081905261002f91610091565b826001600160a01b0381166100575760405163e6c4247b60e01b815260040160405180910390fd5b6001600160a01b0390811660805291821660a0521660c052506100d4565b80516001600160a01b038116811461008c57600080fd5b919050565b6000806000606084860312156100a657600080fd5b6100af84610075565b92506100bd60208501610075565b91506100cb60408501610075565b90509250925092565b60805160a05160c051610c446101396000396000818161016d015281816103be0152818161047a01526104ec015260008181607401526105ac01526000818160c3015281816101c2015281816102a50152818161044b015261064d0152610c446000f3fe6080604052600436106100605760003560e01c80630bd07d2314610065578063116191b6146100b15780631a98b2e0146100e5578063491606581461010757806367b449ce1461012757806387fb8b4e1461014b578063b2a061641461015e575b600080fd5b34801561007157600080fd5b507f00000000000000000000000000000000000000000000000000000000000000005b6040516001600160a01b0390911681526020015b60405180910390f35b3480156100bd57600080fd5b506100947f000000000000000000000000000000000000000000000000000000000000000081565b3480156100f157600080fd5b50610105610100366004610717565b610191565b005b34801561011357600080fd5b506101056101223660046107f0565b610274565b34801561013357600080fd5b5061013d60005481565b6040519081526020016100a8565b610105610159366004610893565b61034e565b34801561016a57600080fd5b507f0000000000000000000000000000000000000000000000000000000000000000610094565b600085856040516101a3929190610919565b604051908190038120631876eed960e01b825291506001600160a01b037f00000000000000000000000000000000000000000000000000000000000000001690631876eed990610207908e908e908e908e908e9089908d908d908d90600401610952565b6020604051808303816000875af1158015610226573d6000803e3d6000fd5b505050506040513d601f19601f8201168201806040525081019061024a91906109b1565b61026757604051631403112d60e21b815260040160405180910390fd5b5050505050505050505050565b60008282604051610286929190610919565b604051908190038120635f6970c360e01b825291506001600160a01b037f00000000000000000000000000000000000000000000000000000000000000001690635f6970c3906102e4908b908b908b908b908b9089906004016109da565b6020604051808303816000875af1158015610303573d6000803e3d6000fd5b505050506040513d601f19601f8201168201806040525081019061032791906109b1565b61034457604051631403112d60e21b815260040160405180910390fd5b5050505050505050565b6000341161039c5760405162461bcd60e51b815260206004820152601760248201527611d85cc81c185e5b595b9d081a5cc81c995c5d5a5c9959604a1b604482015260640160405180910390fd5b6040516323b872dd60e01b8152336004820152306024820152604481018390527f00000000000000000000000000000000000000000000000000000000000000006001600160a01b0316906323b872dd906064016020604051808303816000875af115801561040f573d6000803e3d6000fd5b505050506040513d601f19601f8201168201806040525081019061043391906109b1565b5060405163095ea7b360e01b81526001600160a01b037f000000000000000000000000000000000000000000000000000000000000000081166004830152602482018490527f0000000000000000000000000000000000000000000000000000000000000000169063095ea7b3906044016020604051808303816000875af11580156104c3573d6000803e3d6000fd5b505050506040513d601f19601f820116820180604052508101906104e791906109b1565b5060007f00000000000000000000000000000000000000000000000000000000000000006001600160a01b03166395d89b416040518163ffffffff1660e01b8152600401600060405180830381865afa158015610548573d6000803e3d6000fd5b505050506040513d6000823e601f3d908101601f191682016040526105709190810190610a55565b604080513360208201524691810182905260608101859052608081018790529192509060009060a00160405160208183030381529060405290507f00000000000000000000000000000000000000000000000000000000000000006001600160a01b031663c62c200234308d8d8d8d888b8e336040518b63ffffffff1660e01b815260040161060799989796959493929190610b2d565b6000604051808303818588803b15801561062057600080fd5b505af1158015610634573d6000803e3d6000fd5b5050604051632d505c2160e21b81526001600160a01b037f000000000000000000000000000000000000000000000000000000000000000016935063b5417084925061069191508d908d908d908d9088908b908e90600401610baa565b600060405180830381600087803b1580156106ab57600080fd5b505af11580156106bf573d6000803e3d6000fd5b5050505050505050505050505050565b60008083601f8401126106e157600080fd5b5081356001600160401b038111156106f857600080fd5b60208301915083602082850101111561071057600080fd5b9250929050565b60008060008060008060008060008060c08b8d03121561073657600080fd5b8a35995060208b01356001600160401b038082111561075457600080fd5b6107608e838f016106cf565b909b50995060408d013591508082111561077957600080fd5b6107858e838f016106cf565b909950975060608d013591508082111561079e57600080fd5b6107aa8e838f016106cf565b909750955060808d01359150808211156107c357600080fd5b506107d08d828e016106cf565b9150809450508092505060a08b013590509295989b9194979a5092959850565b60008060008060008060006080888a03121561080b57600080fd5b8735965060208801356001600160401b038082111561082957600080fd5b6108358b838c016106cf565b909850965060408a013591508082111561084e57600080fd5b61085a8b838c016106cf565b909650945060608a013591508082111561087357600080fd5b506108808a828b016106cf565b989b979a50959850939692959293505050565b600080600080600080600060a0888a0312156108ae57600080fd5b87356001600160401b03808211156108c557600080fd5b6108d18b838c016106cf565b909950975060208a01359150808211156108ea57600080fd5b506108f78a828b016106cf565b989b979a50986040810135976060820135975060809091013595509350505050565b8183823760009101908152919050565b81835281816020850137506000828201602090810191909152601f909101601f19169091010190565b89815260c06020820152600061096c60c083018a8c610929565b828103604084015261097f81898b610929565b9050866060840152828103608084015261099a818688610929565b9150508260a08301529a9950505050505050505050565b6000602082840312156109c357600080fd5b815180151581146109d357600080fd5b9392505050565b8681526080602082015260006109f4608083018789610929565b8281036040840152610a07818688610929565b915050826060830152979650505050505050565b634e487b7160e01b600052604160045260246000fd5b60005b83811015610a4c578181015183820152602001610a34565b50506000910152565b600060208284031215610a6757600080fd5b81516001600160401b0380821115610a7e57600080fd5b818401915084601f830112610a9257600080fd5b815181811115610aa457610aa4610a1b565b604051601f8201601f19908116603f01168101908382118183101715610acc57610acc610a1b565b81604052828152876020848701011115610ae557600080fd5b610af6836020830160208801610a31565b979650505050505050565b60008151808452610b19816020860160208601610a31565b601f01601f19169290920160200192915050565b600060018060a01b03808c16835260e06020840152610b5060e084018b8d610929565b8381036040850152610b63818a8c610929565b90508381036060850152610b778189610b01565b90508381036080850152610b8b8188610b01565b60a0850196909652509290921660c09091015250979650505050505050565b60a081526000610bbe60a08301898b610929565b8281036020840152610bd181888a610929565b90508281036040840152610be58187610b01565b90508281036060840152610bf98186610b01565b9150508260808301529897505050505050505056fea2646970667358221220414a72994e8fd609308ca66865c9874ed6a96947d34b5a51bde6f4b8450d25ec64736f6c63430008110033",
  "linkReferences": {},
  "deployedLinkReferences": {}
}