{
  "_format": "hh-sol-artifact-1",
  "contractName": "GmpDonationRelayer",
  "sourceName": "contracts/core/project/gmp/GmpDonationRelayer.sol",
  "abi": [
    {
      "inputs": [
        {
          "internalType": "address",
          "name": "gateway_",
          "type": "address"
        },
        {
          "internalType": "address",
          "name": "gasReceiver_",
          "type": "address"
        },
        {
          "internalType": "address",
          "name": "token_",
          "type": "address"
        }
      ],
      "stateMutability": "nonpayable",
      "type": "constructor"
    },
    {
      "inputs": [],
      "name": "InvalidAddress",
      "type": "error"
    },
    {
      "inputs": [],
      "name": "NotApprovedByGateway",
      "type": "error"
    },
    {
      "anonymous": false,
      "inputs": [
        {
          "indexed": true,
          "internalType": "address",
          "name": "sender",
          "type": "address"
        },
        {
          "indexed": true,
          "internalType": "uint256",
          "name": "srcChainId",
          "type": "uint256"
        },
        {
          "indexed": true,
          "internalType": "uint256",
          "name": "beneificiaryIndex",
          "type": "uint256"
        },
        {
          "indexed": false,
          "internalType": "address",
          "name": "token",
          "type": "address"
        },
        {
          "indexed": false,
          "internalType": "uint256",
          "name": "amount",
          "type": "uint256"
        }
      ],
      "name": "ExecuteCrossChainDonation",
      "type": "event"
    },
    {
      "inputs": [],
      "name": "GMP_DONATION_RECEIVER",
      "outputs": [
        {
          "internalType": "string",
          "name": "",
          "type": "string"
        }
      ],
      "stateMutability": "view",
      "type": "function"
    },
    {
      "inputs": [],
      "name": "RECEIVING_CHAIN",
      "outputs": [
        {
          "internalType": "string",
          "name": "",
          "type": "string"
        }
      ],
      "stateMutability": "view",
      "type": "function"
    },
    {
      "inputs": [
        {
          "internalType": "bytes32",
          "name": "commandId",
          "type": "bytes32"
        },
        {
          "internalType": "string",
          "name": "sourceChain",
          "type": "string"
        },
        {
          "internalType": "string",
          "name": "sourceAddress",
          "type": "string"
        },
        {
          "internalType": "bytes",
          "name": "payload",
          "type": "bytes"
        }
      ],
      "name": "execute",
      "outputs": [],
      "stateMutability": "nonpayable",
      "type": "function"
    },
    {
      "inputs": [
        {
          "internalType": "uint256",
          "name": "beneficiaryIndex",
          "type": "uint256"
        },
        {
          "internalType": "uint256",
          "name": "amount",
          "type": "uint256"
        },
        {
          "internalType": "uint256",
          "name": "donationType",
          "type": "uint256"
        }
      ],
      "name": "executeMainDonation",
      "outputs": [],
      "stateMutability": "payable",
      "type": "function"
    },
    {
      "inputs": [
        {
          "internalType": "bytes32",
          "name": "commandId",
          "type": "bytes32"
        },
        {
          "internalType": "string",
          "name": "sourceChain",
          "type": "string"
        },
        {
          "internalType": "string",
          "name": "sourceAddress",
          "type": "string"
        },
        {
          "internalType": "bytes",
          "name": "payload",
          "type": "bytes"
        },
        {
          "internalType": "string",
          "name": "tokenSymbol",
          "type": "string"
        },
        {
          "internalType": "uint256",
          "name": "amount",
          "type": "uint256"
        }
      ],
      "name": "executeWithToken",
      "outputs": [],
      "stateMutability": "nonpayable",
      "type": "function"
    },
    {
      "inputs": [],
      "name": "gateway",
      "outputs": [
        {
          "internalType": "contract IAxelarGateway",
          "name": "",
          "type": "address"
        }
      ],
      "stateMutability": "view",
      "type": "function"
    },
    {
      "inputs": [],
      "name": "getAxelarGasService",
      "outputs": [
        {
          "internalType": "address",
          "name": "service",
          "type": "address"
        }
      ],
      "stateMutability": "view",
      "type": "function"
    },
    {
      "inputs": [],
      "name": "getSupportedToken",
      "outputs": [
        {
          "internalType": "address",
          "name": "token",
          "type": "address"
        }
      ],
      "stateMutability": "view",
      "type": "function"
    },
    {
      "inputs": [],
      "name": "lastBeneficiaryIndex",
      "outputs": [
        {
          "internalType": "uint256",
          "name": "",
          "type": "uint256"
        }
      ],
      "stateMutability": "view",
      "type": "function"
    }
  ],
  "bytecode": "0x60e060405234801561001057600080fd5b50604051610e4a380380610e4a83398101604081905261002f91610091565b826001600160a01b0381166100575760405163e6c4247b60e01b815260040160405180910390fd5b6001600160a01b0390811660805291821660a0521660c052506100d4565b80516001600160a01b038116811461008c57600080fd5b919050565b6000806000606084860312156100a657600080fd5b6100af84610075565b92506100bd60208501610075565b91506100cb60408501610075565b90509250925092565b60805160a05160c051610d116101396000396000818161019201528181610448015281816105040152610576015260008181608a015261063601526000818160d90152818161023001528181610313015281816104d501526106fb0152610d116000f3fe6080604052600436106100765760003560e01c80630bd07d231461007b578063116191b6146100c75780631a98b2e0146100fb578063491606581461011d57806367b449ce1461013d578063691d928314610161578063b2a0616414610183578063b9a25ec9146101b6578063bcfb2c14146101c9575b600080fd5b34801561008757600080fd5b507f00000000000000000000000000000000000000000000000000000000000000005b6040516001600160a01b0390911681526020015b60405180910390f35b3480156100d357600080fd5b506100aa7f000000000000000000000000000000000000000000000000000000000000000081565b34801561010757600080fd5b5061011b610116366004610809565b6101ff565b005b34801561012957600080fd5b5061011b6101383660046108e2565b6102e2565b34801561014957600080fd5b5061015360005481565b6040519081526020016100be565b34801561016d57600080fd5b506101766103bc565b6040516100be91906109d5565b34801561018f57600080fd5b507f00000000000000000000000000000000000000000000000000000000000000006100aa565b61011b6101c43660046109ef565b6103d8565b3480156101d557600080fd5b506101766040518060400160405280600a81526020016932ba3432b932bab6969960b11b81525081565b60008585604051610211929190610a1b565b604051908190038120631876eed960e01b825291506001600160a01b037f00000000000000000000000000000000000000000000000000000000000000001690631876eed990610275908e908e908e908e908e9089908d908d908d90600401610a54565b6020604051808303816000875af1158015610294573d6000803e3d6000fd5b505050506040513d601f19601f820116820180604052508101906102b89190610ab3565b6102d557604051631403112d60e21b815260040160405180910390fd5b5050505050505050505050565b600082826040516102f4929190610a1b565b604051908190038120635f6970c360e01b825291506001600160a01b037f00000000000000000000000000000000000000000000000000000000000000001690635f6970c390610352908b908b908b908b908b908990600401610ad5565b6020604051808303816000875af1158015610371573d6000803e3d6000fd5b505050506040513d601f19601f820116820180604052508101906103959190610ab3565b6103b257604051631403112d60e21b815260040160405180910390fd5b5050505050505050565b6040518060600160405280602a8152602001610cb2602a913981565b600034116104265760405162461bcd60e51b815260206004820152601760248201527611d85cc81c185e5b595b9d081a5cc81c995c5d5a5c9959604a1b604482015260640160405180910390fd5b6040516323b872dd60e01b8152336004820152306024820152604481018390527f00000000000000000000000000000000000000000000000000000000000000006001600160a01b0316906323b872dd906064016020604051808303816000875af1158015610499573d6000803e3d6000fd5b505050506040513d601f19601f820116820180604052508101906104bd9190610ab3565b5060405163095ea7b360e01b81526001600160a01b037f000000000000000000000000000000000000000000000000000000000000000081166004830152602482018490527f0000000000000000000000000000000000000000000000000000000000000000169063095ea7b3906044016020604051808303816000875af115801561054d573d6000803e3d6000fd5b505050506040513d601f19601f820116820180604052508101906105719190610ab3565b5060007f00000000000000000000000000000000000000000000000000000000000000006001600160a01b03166395d89b416040518163ffffffff1660e01b8152600401600060405180830381865afa1580156105d2573d6000803e3d6000fd5b505050506040513d6000823e601f3d908101601f191682016040526105fa9190810190610b2c565b604080513360208201524691810182905260608101859052608081018790529192509060009060a00160405160208183030381529060405290507f00000000000000000000000000000000000000000000000000000000000000006001600160a01b031663c62c200234306040518060400160405280600a81526020016932ba3432b932bab6969960b11b8152506040518060600160405280602a8152602001610cb2602a913986898c336040518963ffffffff1660e01b81526004016106c79796959493929190610bd8565b6000604051808303818588803b1580156106e057600080fd5b505af11580156106f4573d6000803e3d6000fd5b50505050507f00000000000000000000000000000000000000000000000000000000000000006001600160a01b031663b54170846040518060400160405280600a81526020016932ba3432b932bab6969960b11b8152506040518060600160405280602a8152602001610cb2602a913984878a6040518663ffffffff1660e01b8152600401610787959493929190610c51565b600060405180830381600087803b1580156107a157600080fd5b505af11580156107b5573d6000803e3d6000fd5b50505050505050505050565b60008083601f8401126107d357600080fd5b5081356001600160401b038111156107ea57600080fd5b60208301915083602082850101111561080257600080fd5b9250929050565b60008060008060008060008060008060c08b8d03121561082857600080fd5b8a35995060208b01356001600160401b038082111561084657600080fd5b6108528e838f016107c1565b909b50995060408d013591508082111561086b57600080fd5b6108778e838f016107c1565b909950975060608d013591508082111561089057600080fd5b61089c8e838f016107c1565b909750955060808d01359150808211156108b557600080fd5b506108c28d828e016107c1565b9150809450508092505060a08b013590509295989b9194979a5092959850565b60008060008060008060006080888a0312156108fd57600080fd5b8735965060208801356001600160401b038082111561091b57600080fd5b6109278b838c016107c1565b909850965060408a013591508082111561094057600080fd5b61094c8b838c016107c1565b909650945060608a013591508082111561096557600080fd5b506109728a828b016107c1565b989b979a50959850939692959293505050565b60005b838110156109a0578181015183820152602001610988565b50506000910152565b600081518084526109c1816020860160208601610985565b601f01601f19169290920160200192915050565b6020815260006109e860208301846109a9565b9392505050565b600080600060608486031215610a0457600080fd5b505081359360208301359350604090920135919050565b8183823760009101908152919050565b81835281816020850137506000828201602090810191909152601f909101601f19169091010190565b89815260c060208201526000610a6e60c083018a8c610a2b565b8281036040840152610a8181898b610a2b565b90508660608401528281036080840152610a9c818688610a2b565b9150508260a08301529a9950505050505050505050565b600060208284031215610ac557600080fd5b815180151581146109e857600080fd5b868152608060208201526000610aef608083018789610a2b565b8281036040840152610b02818688610a2b565b915050826060830152979650505050505050565b634e487b7160e01b600052604160045260246000fd5b600060208284031215610b3e57600080fd5b81516001600160401b0380821115610b5557600080fd5b818401915084601f830112610b6957600080fd5b815181811115610b7b57610b7b610b16565b604051601f8201601f19908116603f01168101908382118183101715610ba357610ba3610b16565b81604052828152876020848701011115610bbc57600080fd5b610bcd836020830160208801610985565b979650505050505050565b600060018060a01b03808a16835260e06020840152610bfa60e084018a6109a9565b8381036040850152610c0c818a6109a9565b90508381036060850152610c2081896109a9565b90508381036080850152610c3481886109a9565b60a0850196909652509290921660c0909101525095945050505050565b60a081526000610c6460a08301886109a9565b8281036020840152610c7681886109a9565b90508281036040840152610c8a81876109a9565b90508281036060840152610c9e81866109a9565b915050826080830152969550505050505056fe307834314333414262374637636641353730423735443046454132433546324541653665354631433430a2646970667358221220fce3c494c1861f25828b83c5823f53a07a944f77acbfd6e7cc720497c93f429264736f6c63430008110033",
  "linkReferences": {},
  "deployedLinkReferences": {}
}